:10000000C0270020090100000501000005010000D3
:1000100000000000000000000000000000000000E0
:1000200000000000000000000000000005010000CA
:1000300000000000000000000501000005010000B4
:100040000501000005010000050100000501000098
:100050003D0700000501000005010000050100004A
:10006000050100000501000005010000000000007E
:10007000000000000501000005010000050100006E
:10008000050100000501000005010000000000005E
:10009000000000000501000005010000050100004E
:1000A0000501000010B5064C2378002B07D1054B45
:1000B000002B02D0044800E000BF0123237010BDD4
:1000C0001800002000000000C0400000084B10B5E0
:1000D000002B03D00749084800E000BF0748036829
:1000E000002B00D110BD064B002BFBD09847F9E741
:1000F000000000001C000020C0400000C0400000C4
:1001000000000000FEE7000010B5124A124B9A42B0
:1001100009D0114B0F4A03E011681960043304320F
:100120000E498B42F8D30E4B02E000221A600433D2
:100130000C4A9342F9D30C4AFF210C4B8B4393603A
:100140000B4A516880230B4353600A4B98470A4B74
:100150009847FEE7C0400000000000201800002083
:1001600018000020C017002000ED00E00000000093
:1001700000400041692C00009528000010B502489D
:10018000024B984710BDC04610E000E0AD010000F2
:10019000EFF31083036072B6BFF35F8F7047BFF356
:1001A0005F8F036883F310887047000010B5024B1F
:1001B0001860024B984710BD340000205911000010
:1001C00010B5044B1C68044B984701002000034BFA
:1001D000984710BD3400002009060000651100009A
:1001E00070B50225002407E00D4AB358002B00D05B
:1001F000984770BD013AD5B2AC42FAD82B195B10C2
:10020000DAB2012AF5D8FF210B40DE000449891932
:1002100049688142E8D0EDD20132D4B2ECE7C04661
:100220003800002010B5002309E0084AD900501812
:100230000124644244600020885001339BB2012BAA
:10024000F3D90348034B984710BDC046380000203F
:10025000E10100004D060000F0B5D6464F46464687
:10026000C0B584B00023012B0CD8DC00324A12192F
:100270005268824202D00133DBB2F4E72E4BE150E8
:10028000012600E0002600290CD0002E42D10023D8
:10029000012B11D8DA00284D5259002A07D001331A
:1002A000DBB2F5E7002E40D0244B984737E0DC0066
:1002B00061512C1960600126002201E00132D2B2A6
:1002C000012A27D8012B25D801931B49DC000C19E2
:1002D0006768D400091949688F42EFD24C1CEDD0F1
:1002E00002A98C46144CA046D400A14644464C4476
:1002F000654682CC82C50199C9008A464946414477
:1003000044465444A0CCA0C145465544614690C9DA
:1003100090C5D3E7002E0BD00121084B984704B0BD
:100320001CBC90469946A246F0BD0D204042F6E71F
:100330000D204042F3E7C04638000020E9060000E7
:1003400010B584B01438848B01AB1C801400029269
:10035000064A5A8003911900054B9847002802D19C
:10036000200004B010BD0400FAE7C0460080FFFF83
:10037000A50B000010B584B01438848B01AB1C8031
:1003800014000292064A5A8003911900054B9847BF
:10039000002802D1200004B010BD0400FAE7C046D6
:1003A0000180FFFFA50B000070B504000D00431E87
:1003B0009841C0B25E220749074B984729002000A8
:1003C000064B9847002803D1054BA361054B636199
:1003D00070BDC046C02C000001060000810A00006C
:1003E000750300004103000010B5014B984710BD94
:1003F0002D0B00008905890D8023DB001A400A437C
:10040000828310007047000070B586B004001600AB
:100410001D006B46D9710733828B03A90A80012224
:100420004A6000224A808B60074B9847002801D021
:1004300006B070BD03A9054B4B808E604D60200057
:10044000014B9847F4E7C046A50B00000180FFFF71
:10045000143008600020704770B504000D001600CD
:1004600000280ED000290AD0012034220649074B6B
:1004700098472368320029002000984770BD00206B
:10048000F3E70020F1E7C046DC2C00000106000085
:1004900070B504000D00002817D0002913D00120EA
:1004A00040220B490B4B98476560201D29000A4BE1
:1004B0009847002806DB094BA382094B2361094BAF
:1004C000E360002070BD0020EAE70020E8E7C046B6
:1004D000F02C000001060000C10D00000080FFFFAD
:1004E000950500005905000010B50400431E984111
:1004F000C0B257220349044B9847201D034B98472D
:1005000010BDC046F02C000001060000790F00006D
:1005100030B587B004000D00002815D0002911D097
:100520000120B32209490A4B98472B6803936B6853
:100530000493AB6801930593201D03A9054B9847CD
:1005400007B030BD0020ECE70020EAE7F02C000007
:1005500001060000B10F000070B584B004000E0069
:100560001500431E9841C0B2A3220749074B984784
:1005700020000C38002302930196039501A9044B37
:10058000984704B070BDC046F02C00000106000082
:100590001105000070B584B004000E001500431E64
:1005A0009841C0B287220749074B984720000C3872
:1005B000029600230193039501A9044B984704B0C8
:1005C00070BDC046F02C00000106000011050000BF
:1005D00070B504000D0000280CD0002908D00120BF
:1005E000BD220549054B98470C342C60002070BD96
:1005F0000020F5E70020F3E7F02C000001060000E2
:10060000002800D100BE704703011B1A5A01642064
:100610005043704710B5084A536806210B43536096
:10062000064B9847064B98470820064CA047064BB8
:100630009847F720A04710BD004000415508000032
:1006400099100000F9070000CD100000234B5B78E3
:10065000DB09FBD1214B5B78DB09FBD11F4B1B78FE
:100660009B070AD500221D4B1A701C4B5B78DB09D7
:10067000FBD11A4B5B78DB09FBD10122174B1A70B7
:10068000164B5B78DB09FBD1144B5B78DB09FBD1A4
:10069000124B00229A705A60822292015A61802283
:1006A00052059A6180229203DA611A7802210A4384
:1006B000D2B21A70094B5B78DB09FBD1084B1022D0
:1006C00080215A50BFF34F8FBFF36F8F0131FF313D
:1006D0005A501A60034B1860002070470018004001
:1006E00000E100E04800002030B50023012B0BD8CA
:1006F000DC00104A12195268824202D00133DBB288
:10070000F4E70C4BE25C00E0FF22FF2A0ED0002948
:1007100006D101239340084A93601361002030BD45
:1007200001239340044AD3600020F8E70D204042A3
:10073000F5E7C046242D000000180040F0B583B056
:10074000274B1A69D9680A400192019A1A61254B10
:100750001868431E9841C0B2D2222349234B9847C0
:1007600001256D4231E0DB00214AD3185D686B1C26
:1007700003D01C4B1B68280098470122A240019B14
:100780009343019301981B4B9847013844B2631C73
:1007900014D00226002001E00139CEB2B042E6D8E2
:1007A00033185B10D9B2FF221340DF00104ABA5C45
:1007B000A242D8D0F0DA0131C8B2EFE7084B1A698B
:1007C000D9680A400192019A1A61019B002B05D059
:1007D0000198084B9847013844B2D8E703B0F0BD00
:1007E00000180040480000200C2D00000106000009
:1007F000242D0000152C0000C30709D5114B8022C1
:1008000052009A60104A5A600E4B5B78DB09FBD1AC
:10081000830709D50B4B0222FF329A600B4A5A60BC
:10082000084B5B78DB09FBD1030709D5054B042294
:10083000FF329A60064A5A60024B5B78DB09FBD1B3
:100840007047C046000C0040000709000103290062
:1008500003030900064B1A7AD2B21A725A7AD2B23C
:100860005A729A7AD2B29A72DA7AD2B2DA7270473D
:1008700000040040024B9C466044800AC0B27047AE
:1008800000F8FFBD038ADB0B08D103680222134383
:100890000360038ADB0BFCD1002070470420404238
:1008A000FBE7000010B50B4B984702000020002822
:1008B00006D0094A09490020094B9847002010BD7D
:1008C00043001B18D900074BCB5C9A42F7D001308C
:1008D000C0B2ECE77508000066030000342D00008C
:1008E00001060000502D000070B505000469431E8C
:1008F0009841C0B25C4A5D495D4B984763685D4A68
:1009000013406360238ADB0BFCD12A8852006B887A
:1009100001210B401343DBB22375238ADB0BFCD18F
:100920002E69554AB37BDBB21800511E002A02D053
:100930000A009B07F6D0238ADB0BFCD1238A9BB2EB
:10094000C20750D59A0710D50122A2736A88802168
:1009500049010A436A806A8848490A406A80DB077D
:1009600000D47CE00520404263E05B070BD468685C
:1009700000282DD16B881BB2002B20DB6B883F4AEF
:1009800013406B8055E06B68002B04DD6B88802280
:10099000520113436B806B881BB2002B06DB6B8804
:1009A000364A13406B800220404242E06268C02316
:1009B0009B0213436360238ADB0BFCD1EFE7626881
:1009C000C0239B0213436360238ADB0BFCD1D5E772
:1009D000AB681B782376AB680133AB606B68013B77
:1009E0006B60002025E082073CD56A68002A31D080
:1009F0005B072FD4013A6A60002A07D1626880231E
:100A0000DB0213436360238ADB0BFCD16B68002B92
:100A100007D16B881BB2002B0CDB6B88174A134085
:100A20006B80AB685A1CAA60227E1A700223A373E3
:100A3000002070BD6368114A13406360238ADB0B9A
:100A4000FCD16268C0239B0213436360238ADB0BE3
:100A5000FCD1E2E70223A37302204042E9E704202D
:100A60004042E6E70020E4E781050000342D000065
:100A700001060000FFFFFBFFFFFF0000FFFEFFFF7E
:100A800070B506000C000800234B984705003000A5
:100A9000431E9841C0B2214A2149224B98473461F4
:100AA000238ADB0BFCD1238ADB0BFCD123689B0759
:100AB00007D500232360238ADB0BFCD1238ADB0BC1
:100AC000FCD101232360238ADB0BFCD1238ADB0BBF
:100AD000FCD16B005B19DA00134B9B185B68022298
:100AE00093432360238ADB0BFCD16B005B19DA0094
:100AF0000D4B9B189B686360238ADB0BFCD10A4A71
:100B00006B005819C10008005118898961811218B9
:100B1000138AF381002070BDA5080000D7040000EF
:100B2000342D000001060000502D0000F8B506002D
:100B30000469184D431E9841C0B2A122D200290079
:100B4000154FB8473069431E9841C0B2134A290077
:100B5000B8472368022213432360238ADB0BFCD1AE
:100B600004200F49238ADB0BFCD1228A12090333AC
:100B70001340012B08D001390029F3DC013800288B
:100B800004D010232382ECE70020F8BD0620404269
:100B9000FBE7C046342D00000106000009050000F7
:100BA000FFFF0000F8B505000E000469431E9841E0
:100BB000C0B27B4A7B497C4FB8472869431E9841A5
:100BC000C0B27A4A7749B8473000431E9841C0B254
:100BD000774A7449B8476B88DB0500D5DCE072883A
:100BE00080235B009C461A4372802A00310089C929
:100BF00089C26268634613436360238ADB0BFCD1BE
:100C000028006C4B9847002800D17DE06B886A4A29
:100C100013406B80F8BD0520404286E073881BB20C
:100C2000002B04DB6B88644A13406B80F2E7626838
:100C3000C0239B0213436360238ADB0BFCD1F1E7E3
:100C40005B070BD4686800282DD16B881BB2002B82
:100C500020DB6B88584A13406B8055E06B68002B93
:100C600004DD6B888022520113436B806B881BB2BA
:100C7000002B06DB6B88504A13406B8002204042F9
:100C800042E06268C0239B0213436360238ADB0B4C
:100C9000FCD1EFE76268C0239B0213436360238AA1
:100CA000DB0BFCD1D5E7AB681B782376AB6801334F
:100CB000AB606B68013B6B60002025E08A0769D55B
:100CC0006A68002A5ED05B075CD4013A6A60002A39
:100CD00007D162688023DB0213436360238ADB0B46
:100CE000FCD16B68002B07D16B881BB2002B39DB62
:100CF0006B88314A13406B80AB685A1CAA60227E15
:100D00001A700223A37300206B88DB0500D481E7EF
:100D10002F692A4ABB7BDBB21900501E002A00D182
:100D200079E702009B07F5D00020002800D075E786
:100D3000238ADB0BFCD1238A9BB2CA07BED59A0754
:100D400000D47DE70122A2736A88802149010A4309
:100D50006A806A8818490A406A80DB0717D505202F
:100D60004042D1E76368144A13406360238ADB0B77
:100D7000FCD16268C0239B0213436360238ADB0BB0
:100D8000FCD1B5E70223A37302204042BCE7042054
:100D90004042B9E70020B7E7062040423AE7C046A4
:100DA0009B050000342D0000010600009C0500009A
:100DB0009D050000E9080000FFFEFFFFFFFF0000A7
:100DC00070B506000C000800614B98470023002B0B
:100DD00000D16CE00025002E00D173E0002C00D182
:100DE0006EE001205B4A5C495C4B9847002D00D1C6
:100DF000ABE0238ADB0BFCD1238ADB0BFCD123681D
:100E00009B0707D500232360238ADB0BFCD1238AB1
:100E1000DB0BFCD101232360238ADB0BFCD1238A6B
:100E2000DB0BFCD134602B786A7812021A43AB7862
:100E30001B041A43EB781B0613431C221340082B98
:100E400042D0002C00D17CE0002D00D177E00120C1
:100E5000434A4149414B98472B786A7812021A431A
:100E6000AB781B041A43EB781B0613433D4A13402F
:100E70002360238ADB0BFCD12B796A7912021A4397
:100E8000AB791B041A43EB791B061343364A134014
:100E900080229202134363602B7BA3726B7B2372CD
:100EA0002B795B074FD101233371002070BD0028DF
:100EB00002D00133DBB28AE71D012C4B5D198AE7B2
:100EC00000208FE700208DE7002C36D0002D32D097
:100ED0000120274A2049214B98472B786A78120233
:100EE0001A43AB781B041A43EB781B0613431D4AC5
:100EF00013402360238ADB0BFCD12B796A79120221
:100F00001A43AB791B041A43EB791B061343194AA6
:100F1000134363602B7A6A7A12021A43AB7A1B047A
:100F20001A43EB7A1B06134363616B7B2372238A9C
:100F3000DB0BFCD1B4E70020CBE70020C9E70020A1
:100F400086E7002084E70223AEE70D204042ADE7AC
:100F500075080000A3080000342D00000106000001
:100F600072080000FCFEFFFFBF3FFDFF682D000080
:100F7000830800004000020010B5041E0DD0036875
:100F8000002B08D00120064A0649074B98472068E5
:100F9000064B984710BD0020F5E70020F3E7C04658
:100FA0000A090000342D0000010600008508000039
:100FB00070B588B00D0004680B6803934B68049308
:100FC0000023059306930679002814D0002C10D036
:100FD00001202D4A2D492E4B9847238ADB0B4FD1F8
:100FE000238ADB0BFCD123689B0718D414204042D2
:100FF00044E00020EDE70020EBE7002226E05878EF
:1010000000020143023303930132059289B2218326
:101010000598AB68984202D3069A934229D9A37BDC
:10102000DBB25A07E9D5228B92B20499002908D085
:10103000481C04900A70012E03D9881C0490120ADF
:101040004A70069A0192013206920122002ADFD1EB
:101050000699059A9142DBD3DB07D9D5039B002B78
:1010600005D0591C03911978012EC8D8CCE709493D
:10107000CAE7A37B9B07FCD00323A37308B070BD12
:1010800004204042FAE7C046010A0000342D000067
:1010900001060000FF0100000B4A93691B0C1B04B2
:1010A000FE21C9030B400E210B439361137F1131C5
:1010B0000B401377044BDB685B07FBD5024A93694F
:1010C00080210B4393617047000800400222194BB6
:1010D0009A84184BDB68DB06FBD5174A154BDA629E
:1010E000164B1B689B0E3F2B1BD09B02802292004D
:1010F0001343104A936202239384938C5B0713D5A6
:101100000C4BDA68D0231340D02BF9D1094A938CC9
:1011100080210B439BB29384094B5B78DB09FBD1A5
:101120007047FC23DB01E4E7024BDB68DB06FBD501
:10113000ECE7C04600080040000001042460800085
:10114000000C0040024B034A5A6005221A607047A7
:1011500010E000E0FFFFFF0010B5014B984710BD05
:1011600045110000080E0BE00B4B0C4858609860CE
:10117000094B1B68DB03FBD5094B9C4661441000FF
:10118000421ED2B20028EFD1034B59609960024B46
:101190001B68DB03FBD5704710E000E0FFFFFF009A
:1011A000010000FF034B1B78FF2B02D00133014AE3
:1011B000137070474D000020034B1B78FF2B02D0AB
:1011C0000133014A137070474C000020024B18781D
:1011D00000221A707047C0464D00002010B5030071
:1011E0000A00034908681900024B984710BDC04621
:1011F000281700205904000070B50D00140001B23A
:10120000802212010548064B9847A2B2054B186888
:101210002900054B9847C043C00F70BDE816002059
:10122000F5030000241700205904000070B50C00DD
:10123000150001B2064E802212013000054B98477E
:101240002B00220000213000034CA04770BDC04697
:10125000E8160020F503000009040000F0B5CE46B2
:10126000474680B5C022D20580231B03936193605B
:10127000354B8024E4059C62344999625325585DBE
:101280000121884358558020C0019061906030480A
:101290009862C020000681469862053D585D8843EB
:1012A000585580200002906190602A489862484614
:1012B00098620135585D884358558020400250613E
:1012C00090609C62244898620135585D8843585567
:1012D0008027BF0257602148986221489862576072
:1012E0000135585D804604208446604646460643E4
:1012F000F0B258559761585D884358558020C00218
:10130000506190609C62174898620135585D88432F
:10131000585580200005906190609C621248986248
:101320005B24185D8843185580200001906190600F
:101330000E4A9A624A469A624B201A5C8A431A54B1
:101340000CBC90469946F0BD00440041080000C026
:101350000040004000800040010000C0000002404A
:10136000020002C0040000C0000800C000080040E5
:10137000F0B5C64600B5C021C90580235B004B61AE
:101380008B60304B304A9A62C022120694469A62B1
:101390004824185D0126B04301221043C0B21855FD
:1013A0003427D85D0F25A8430224A0464446204395
:1013B000C0B2D85580208000486188602348986278
:1013C0006046986249208446185CB0431043C0B21E
:1013D00064461855D85D3A3C20402024A446644613
:1013E0002043C0B2D8558020C00048601849996297
:1013F000184999621637D95D04208143D955D95DC2
:10140000B1431143C9B2D95535215A5CAA43444668
:101410002243D2B25A54104A136A184310620F4A38
:101420000F4B5A800F4C10492000104B9847104921
:101430002000104B984720000F4B984704BC904663
:10144000F0BDC046004400410001004000020040E1
:1014500000040240000002C0000400400D400000F3
:10146000000C00400C17002000080042910400000E
:1014700028170020D1050000E9040000F8B51E4A35
:10148000136A20210B4313621C4B1D4A5A801D4ACC
:101490005A801D4C1D4920001D4B98471D4B56205E
:1014A000195C042291431954195C0126B1430125AA
:1014B0002943C9B219541B38195C0F27B9430227B5
:1014C0003943C9B2195457215F5C97435F545A5C42
:1014D000B2432A43D2B25A541A5C48390A402021F6
:1014E0000A43D2B21A540C4920000C4B98472000F2
:1014F0000B4B9847F8BDC04600040040000C00406C
:10150000104000000C430000E816002000140042C8
:10151000A9030000004400412417002051040000EA
:10152000E9030000F8B51A4A1A4B5A80C027FF0594
:1015300080237B60184B194A9A62194A9A624720A5
:10154000195C042291431954195C0125A943012413
:101550002143C9B219541438195C0F26314019546B
:101560008021890479600F4999620F499962592154
:10157000585C904358545A5CAA432243D2B25A54FE
:101580001D395A5C32405A54084B9847F8BDC04642
:1015900003410000000C0040004400418000024074
:1015A000000002C000000240000202C0250200004C
:1015B00010B50A4B98470A4B98470A4B98470A4B75
:1015C00098470A4B98470A4919200A4CA0470A49EC
:1015D0000720A047094B984710BDC04615060000DC
:1015E0005D120000711300007D140000251500003D
:1015F000A511000059020000B91100007D01000092
:10160000002805D180221201C023DB055A617047F2
:1016100080221201C023DB059A61F8E7002805D17A
:1016200080221202C023DB055A6170478022120219
:10163000C023DB059A61F8E7002805D18022520219
:10164000C023DB055A61704780225202C023DB05AC
:101650009A61F8E710B5014B984710BDDD11000005
:1016600010B51439CCB2372C03D8A1001948415811
:101670008F4600202CE0013A50425041C0B2164B38
:101680009847012024E090B2144B984701201FE0B6
:1016900091B21800124B9847012019E00020114B1D
:1016A0009847012014E0501E8241D0B20E4B98475B
:1016B00001200DE000200B4B9847012008E001209D
:1016C000084B98470120084B9847012000E0012073
:1016D00010BDC046782D000001160000C1010000B9
:1016E000551600001D1600003916000010B582B016
:1016F00003681B7C5943C90089B2446BA44661440A
:1017000000910021014CA04702B010BDD52400007B
:10171000F0B5C64600B506003823C75C0133C55C8A
:1017200003685B7C984600242A0021003000064BA9
:1017300098470134E4B20135EDB2A74201D9A8457A
:10174000F2D804BC9046F0BDED16000010B5036859
:101750001B7C3822825C5A43D200406B0021014B33
:10176000984710BDB12C000010B50400024B9847FB
:101770002000024B984710BD111700000F250000F4
:1017800013230370004870475000002070B584B0E8
:1017900004000E0000931300084A0949094DA847A8
:1017A0000F256D442800084B984701002A780096C1
:1017B000064B2000064CA04704B070BD0924000071
:1017C000752600003D27000081170000D920000089
:1017D000AD220000405C70474118087800024B7849
:1017E000C01880B2704700207047000070B5040038
:1017F0000D0000212800284EB0472070012128004C
:10180000B047607002212800B047A0700321280073
:10181000B047E07004212800B0472071052128005E
:10182000B047607106212800B047A0710721280049
:10183000B047E07108212800B04720720921280034
:10184000B04760720A212800B047A0720B2128001F
:10185000B047E0720C212800B04720730D2128000A
:10186000B04760730E212800B047A0730F212800F5
:10187000B047E07310212800B047207411212800E0
:10188000064EB047608213212800B047A082152180
:101890002800B047E08270BDD5170000D9170000BE
:1018A000F0B50500067B076838783041C4B272187D
:1018B000D2B2072A0AD908239B1BDBB27C1C2C60FE
:1018C0007C789C400443E4B2083AD2B201238B40B6
:1018D000013B234018002A73F0BD000070B50500DD
:1018E000040060340166002323737833C15C200058
:1018F000074EB047A0727923E95C2000B047E07240
:101900009223EB5CA3735A425341E37370BDC0460C
:10191000A118000010B50C00044B9847013CE4B23C
:101920000123A340C01A40B210BDC046A118000058
:10193000012B09D0002B04D0022B08D0401A80B212
:1019400001E0801880B27047401880B2FBE7801A2F
:1019500080B2F8E7012B09D0002B04D0022B08D06D
:10196000801880B201E0401880B27047801A80B2BF
:10197000FBE7401A80B2F8E7F0B5DE4657464E4620
:101980004546E0B589B00D009346030060331A7AEE
:1019900092465B7A98464646D946804629E00695A7
:1019A000434660339888DA889346524669460A73FC
:1019B0000C27CF5772B21B7C039304920597390012
:1019C000284FB8470790039B049A05995846264F1D
:1019D000B8474B46002B16D1434660335B7B002B48
:1019E00021D0A5422FD32D1BEDB20136F6B2002334
:1019F0009A46434660339C7A5346E41AE4B2A542C1
:101A0000CDD30694CCE7434660339A7B922341467C
:101A1000CA546B461B8B039A0092020007994046FA
:101A2000124FB847DDE743466033DA7B92234146E5
:101A3000CA546B461B8B039A0092020007994046DA
:101A40000A4FB847CDE72A005244434660331A7222
:101A50006A46127C5A7209B03CBC90469946A2462E
:101A6000AB46F0BD5519000031190000911E000071
:101A7000F0B5DE4657464E464546E0B587B0040011
:101A800007006037574B98476B23E35698467A23F5
:101A9000E15C3800544EB04702907B23E15C380093
:101AA000B04705007C23E15C3800B04703900A236F
:101AB000FB569A46002B5ADD4544EDB26D426BB29F
:101AC0001A003E7CB888330005920299474DA8471A
:101AD000834604903B009880F8883300059A029969
:101AE000434DA8470200F880012E48D0002E05D0B3
:101AF000022E54D0032E66D05B4607E0534669465B
:101B00000B810B895B449BB2404480B200900499E6
:101B10002000384DA847002829D023006033002238
:101B20001A725A727623E15C3800334DA8470600DA
:101B30007723E15C3800A8470290002231002000A2
:101B40002E4DA847012202992000A8470121380004
:101B5000294B98470028F0D1230060335B7A5BB2B1
:101B60009845DFDC230060339A7B9223E25403988C
:101B700007B03CBC90469946A246AB46F0BD5B46DA
:101B80004146591A89B2013101339BB255466E461E
:101B900035813689801980B289B20491B6E75346FF
:101BA0006A46138111895B46591A89B201310133A2
:101BB0009BB24246821A92B20132013080B292B296
:101BC00089B20491A2E75B4643449BB25246694600
:101BD0000A810A89821A92B20132013080B292B22D
:101BE00094E7C046DD1800001519000055190000E3
:101BF00031190000C91F0000A11800007919000068
:101C0000F8B50E00846D1734FF2914D860290AD95D
:101C10008823C35AE4186378002B27D02278964291
:101C200007D0E418F7E74029F5D98623C35AE4180A
:101C3000F1E7A01C1BE08A23C05A241825000021CC
:101C400028000C4FB847241802212800B847043553
:101C50008642F4D823781B026278134308D09E4250
:101C600002D0A378E418F5E7E01C00E00020F8BDFE
:101C70000020FCE7D917000010B5040064202152B1
:101C80006621625219002000054B9847002805D0B4
:101C900001002000034B984780B210BD0020FCE7F4
:101CA000011C0000711A0000F8B504000D001600B8
:101CB0001F007023C35C012B11D0002B0AD0022B14
:101CC00012D0032B15D03B003200290020000B4C12
:101CD000A047F8BDC36D98473618B6B2F3E7C36D99
:101CE00098472D1AADB2EEE7C36D9847361AB6B2D3
:101CF000E9E7C36D98472D18ADB2E4E7791C000001
:101D0000F0B5CE46474680B583B004000F0001927F
:101D10001D001C4B98470023984604E03F18BFB2B3
:101D2000404483B298462978200063689847164B50
:101D3000984220D00135154B9842F4D00300019A07
:101D400039002000124EB0477023E35C012B0AD00B
:101D5000002BE3D0022B0BD0032BE1D1019B1E1AE9
:101D6000B3B20193DCE7019B1E18B3B20193D7E72E
:101D70003F1ABFB2D4E7404603B00CBC9046994628
:101D8000F0BDC04615230000FFFF0000FEFF00006D
:101D9000A91C000010B5024C4460024CA04710BDC5
:101DA000FD220000011D000030B5836D002B1DD009
:101DB0008123C1560D33C1540C3BC2560D33C2545E
:101DC000023BC35C002B11D0012B10D07E23C356E5
:101DD000802404571D19A94204DADBB2E1B25B1872
:101DE0008E214354A24201DD8F23C45430BD82337F
:101DF000C356994201DA8E2143548423C3569A4232
:101E0000F4DD8F228354F1E7014BC3657047C04670
:101E1000E717000010B50400836D8B4206D0816582
:101E20007430034B98472000024B984710BDC046C2
:101E3000ED170000A91D000030B505880C882C198D
:101E4000A4B2A54203D99D4210D25C1EA4B29D4209
:101E50000ED294420ED9954200D32A009C4200D85B
:101E6000230002809B1A0B80012002E01500EEE7A0
:101E7000002030BD0020FCE730B583B006AC2578EB
:101E8000C48F121B92B2C46A0095A04703B030BD44
:101E900070B584B0040008A805780E20684401805D
:101EA00003A90A800A226A4413808C23E35C002B76
:101EB00015D01388002B12D0012B03D9022D10D07E
:101EC000032D14D001231D4032D14B33E25A03AB12
:101ED0001B889A4203D84E22A25A93420ED304B0D2
:101EE00070BD0288D31A9BB201330380EAE703A9CD
:101EF0000A88D31A9BB201330B80E3E74A23E35AE3
:101F00004822A25A0A2169440E206844144EB04760
:101F10000028E4D0236B9E680A236B441B8803AA25
:101F200012880E216944098800952000B047D6E741
:101F30004823E25A3A3B6B441B889A42CFD84A2244
:101F4000A25A9342CBD24E23E35A4C22A25A0A21E0
:101F5000694403A8024EB0470028DBD1BFE7C04662
:101F6000391E000010B582B04C23C35A93420BD8DF
:101F70004E23C35A9A4207D24823C35A8B4203D8EE
:101F80004A23C35A994201D302B010BD00230093E3
:101F90000133014CA047F7E7911E00008A4205D2A9
:101FA00083420BD89A420BD9012008E0834209D919
:101FB0009A4201D8002002E0012000E00120704791
:101FC0000020FCE70020FAE7F8B506000C001D0031
:101FD00006AB1B884E21415A4C20305A054FB8475A
:101FE000002806D04A23F15A023BF05A2B00220067
:101FF000B847F8BD9D1F0000F0B5DE4657464E4677
:10200000C0B582B0009017001E000AAB1D88B14217
:1020100029D98B1B9BB29946AF4228D97B1B9BB217
:102020009B46D94527D35B46CB4699462B003500C6
:102030001E003B000F00190000239A46AF4205D84E
:1020400033000E0019002B003D001F005B465C08AA
:1020500024B28E4212D2012301931D4B9F421ED106
:10206000013FBFB21BE0731A9BB29946D4E7EB1B4A
:102070009BB29B46D5E701239A46DFE701235B42EB
:102080000193EAE72A0031000098124B98474B462B
:10209000E41AA3B21CB2002C0CDB0135ADB2AF4286
:1020A0000FD35346002BEDD1320029000098094B85
:1020B0009847ECE76A469288B618B6B25B441CB201
:1020C000EBE702B01CBC91469A46A346F0BDC04661
:1020D000FFFF0000651F0000F0B5C64600B588464A
:1020E00006AC2778072414400125A540EDB29226BE
:1020F000865DB446012E1FD90026614601291DD0F8
:1021000007218A4394460268127C61464A4392B290
:1021100042441100426B94466144002F18D10A7862
:102120003243D2B26A400A700131013B9BB2002BAC
:10213000F5D104BC9046F0BD2E00DEE70025DFE7B8
:10214000012617E07600F6B26D00EDB2002BF0D05C
:102150000A783243D2B26A400A700134072214402E
:10216000013B9BB2002CEDD1428F89189222825CF8
:10217000012AE5D9012AE9D00125E7E7F0B5016890
:102180003823C45CA3B2DA0082870A7CD20042877B
:102190003922865CB7B2FA00C287A4194D7CAC42E2
:1021A00001DDEB1B9BB2DB009BB240240253D31832
:1021B000422283528A8A4423C252CA8A0233C252BA
:1021C000F0BD000010B5014B984710BD7D21000007
:1021D00030B583B004005223C35A5422825A50218E
:1021E000415A5620205A00902000164DA84700283A
:1021F00023D001228C23E254443BE25A0833E35AB1
:102200009A4201D24822A3524A23E25A0833E35A9F
:102210009A4201D94A22A3524C23E25A0833E35A84
:102220009A4201D24C22A3524E23E25A0833E35A77
:102230009A4205D94E22A35202E000228C23E25496
:1022400003B030BDC91F000010B500224823C252A0
:10225000043BC25A0633C2520A3BC25A0C33C25222
:102260000A3BC25A0C33C252014B984710BDC046BC
:10227000D121000010B582B004AC24780094024C47
:10228000A04702B010BDC046791E000010B5002363
:102290005022835204328352013B023A8352043269
:1022A0008352036B5B68984710BD000070B5040053
:1022B00004980025A565E36261633823E254013385
:1022C000E5543433E5542433E554043BE5548C3B66
:1022D0009222A3540132A35420630368200098473C
:1022E0002000044B98472000034B98477023E55487
:1022F00070BDC0468D220000091E0000002901D1DA
:10230000034870470A2901D088B2FAE70048F8E785
:10231000FFFF000000222623C254704710B50A00B8
:10232000046900232021A04710BD10B513000469E3
:102330000A001721A04710BD00B583B06B46DA1D17
:1023400011700121014B984703B000BD2B23000001
:1023500010B50A00C46800231521A04710BD10B5B0
:102360000A00C46800231621A04710BD10B5130051
:10237000C4680A001721A04710BD10B5C468002327
:1023800000221821A04710BD10B5C4680023002208
:102390001921A04710BD000070B582B006000C00E6
:1023A0002178651C172918D00CD919291FD9FE29A5
:1023B00024D12A786B46DA7129213000104B9847D6
:1023C0000234EDE7152919D32A786B46DA71002318
:1023D0003000F568A8470234E2E763786A460732BE
:1023E000137001213000074B98470234D8E70023CF
:1023F00000223000F468A0472C00D1E702B070BD85
:10240000052700006D230000F0B583B004000D0027
:10241000160001930B00143BDAB2052A20D8930072
:10242000104AD3589F4600210F4B98473100200097
:102430000E4B9847012011E001210B4B98473100CA
:1024400020000A4B9847012008E00121064B9847DD
:102450002769019B320029002000B84703B0F0BD76
:102460000020FBE7943F00001D23000039230000FB
:1024700001608A7C2223C2547047000070B50400BA
:102480000023002228214569A847002300221421A7
:102490002000E568A84701224B2120000C4DA847E9
:1024A00023681A7929212000A84700224B21200007
:1024B000A84723681A7929212000A84701224B2127
:1024C0002000A84723685A7929212000A84770BD19
:1024D0000527000010B582B06C466171A2712371AE
:1024E000049B009384686B4601220F21A04702B031
:1024F00010BD10B58468002300220921A04710BD3B
:1025000010B58468002300220A21A04710BD10B531
:102510008468002300221021A04710BD064A002332
:1025200005E0017811700133DBB201320130072B75
:10253000F7D901487047C046E016002030B587B093
:102540000500174B984710212800164B9847132277
:10255000002101A8144B9847002406E001AA13218A
:102560002800124B98470134A4B23023FF339C4219
:10257000F4D9132128000B4B9847002406E001AA48
:1025800013212800094B98470134A4B23023FF33AC
:102590009C42F4D92800064B984707B030BDC0468E
:1025A0007B23000051230000B12C00006D230000AC
:1025B00089230000F8B5CE46474680B506000F00D7
:1025C0009046264B984733685C7C013CA4B2434656
:1025D0009B79E41AA4B291213000214B9946984787
:1025E00090213000C847E400E4B2210030001D4DC6
:1025F000A84721003000A84700213000A84700214B
:102600003000A84701213000A84730213000A847FA
:1026100001213000A84710213000C84743461C79EB
:102620001D682800104B98470200082130000F4B0E
:1026300098470835013CA4B2002CF2D1013FFFB20B
:10264000002FEBD192213000054B98473000084B0A
:1026500098470CBC90469946F8BDC0467B230000C5
:10266000512300005F2300001D2500006D230000A2
:102670008923000070B5040010000939CDB2072D80
:1026800003D8A900154A52589746002024E014495F
:102690002000144B984701201EE02000124B984761
:1026A00012492000124B98471420124DA8472000D1
:1026B000114B98471420A84701200DE01A00010093
:1026C00020000E4B9847012006E00D492000084BE2
:1026D0009847012000E0012070BDC046AC3F0000DB
:1026E0000C400000712400007D240000CC3F00005D
:1026F00099230000C10100003D250000B525000020
:102700000440000010B544690023A04710BD00201C
:102710007047000000230360074A8260C2600261C4
:10272000426123228354033283548361FF33023A8C
:1027300083540432835470470F270000F8B5040017
:102740000F0016001D00054B9847A760E660256145
:10275000069B63612000024B9847F8BD15270000D7
:10276000F324000070B50C4D6B78102213436B708E
:102770000A4E7378112213437370032208493220E2
:10278000084CA047022231003220A0470222290033
:102790003220A04770BDC046080000200400002081
:1027A00000000020F9110000010002099300D21876
:1027B0005300DBB20F2008401818C0B27047000069
:1027C00030B583B004000722694632200F4B98478A
:1027D0006B4618780E4DA84720706B465878A8476E
:1027E00060706B469878A847A0706B46DB782372C0
:1027F0006B461879A847E0706B465879A847207156
:102800006B469879A847E08003B030BD2D120000D8
:10281000A927000070B505000A21054B9847000163
:10282000C4B20A212800034B98476418E0B270BD77
:10283000FD2A0000092C000030B583B004000023FD
:102840006A4613700078114DA8476B46587060783F
:10285000A8476B469870A078A8476B46D870237A33
:102860006A461371E078A8476B4658712079A847EB
:102870006B469871A079A8476B46D87108226946C3
:102880003220034B984703B030BDC04615280000E6
:10289000F9110000F0B585B0724B9847724C2000DA
:1028A000724B98472000724B9847724A724C130043
:1028B00072492000724DA8472000724B98472000B3
:1028C000714B98475A260096462301224621200044
:1028D0006E4DA84700968C2301228C212000A8472A
:1028E0000096D2230122D2212000A8478C21490042
:1028F00000960B0001222000A8470096A0235B0051
:102900005A2201212000A84761492000614EB047AA
:10291000452333220A2120005F4DA847402333225C
:1029200051212000A8474123332297212000A847A6
:1029300043233322DD212000A84758492000B04717
:10294000574B46220A212000564DA847564B562287
:102950000A212000A847554B462250212000A847B5
:10296000534B562250212000A847524B4622962115
:102970002000A847504F3B00562296212000A84730
:102980004E4B4622DC212000A8473B005622DC218A
:102990002000A8474A4B6E220F212000A847494B30
:1029A00084220F212000A84747492000B0478226F3
:1029B0007600464B862231002000A847444B8E22E9
:1029C00031002000A847434B962231002000A84741
:1029D0002000414B98473220404B984707E0802227
:1029E000D202C023DB05DA6132203C4B984703A8B2
:1029F0003B4B9847C023DB051C683A4A126A1B69A7
:102A000053401C40544003A8374B9847A303E6D5D6
:102A1000C023DB05802212015A61802212055A610F
:102A20008022D2025A61314B98470028FBD00E48D1
:102A30002F4B9847C024E4058025ED02A5610120B5
:102A4000264B984765612B4A136904210B43136198
:102A5000294A5168C0239B000B435360BFF34F8F3B
:102A600030BFE0E7B11500000C000020392800005D
:102A700065270000611600002C170020883F000029
:102A80008D170000012500004D170000F91F000000
:102A9000343D0000151E0000A91C00000C3500008C
:102AA00024400000951D00002C4000003440000030
:102AB0003C400000444000004C40000054400000F6
:102AC0005C40000070400000582E0000884000006C
:102AD000904000009840000069170000C10100000C
:102AE00091010000004400419F010000CD11000051
:102AF000C127000000ED00E0004000410022430833
:102B00008B4274D303098B425FD3030A8B4244D3B5
:102B1000030B8B4228D3030C8B420DD3FF220902F7
:102B200012BA030C8B4202D31212090265D0030BB6
:102B30008B4219D300E0090AC30B8B4201D3CB03AC
:102B4000C01A5241830B8B4201D38B03C01A5241EE
:102B5000430B8B4201D34B03C01A5241030B8B42F0
:102B600001D30B03C01A5241C30A8B4201D3CB02DB
:102B7000C01A5241830A8B4201D38B02C01A5241C0
:102B8000430A8B4201D34B02C01A5241030A8B42C3
:102B900001D30B02C01A5241CDD2C3098B4201D3DB
:102BA000CB01C01A524183098B4201D38B01C01A59
:102BB000524143098B4201D34B01C01A52410309D0
:102BC0008B4201D30B01C01A5241C3088B4201D37F
:102BD000CB00C01A524183088B4201D38B00C01A2C
:102BE000524143088B4201D34B00C01A5241411A53
:102BF00000D20146524110467047FFE701B5002060
:102C000000F006F802BDC0460029F7D076E770470D
:102C10007047C04610B50023002802D000F004F829
:102C2000431C180010BDC046414208401C2101232E
:102C30001B04984201D3000C10391B0A984201D39F
:102C4000000A08391B09984201D30009043902A27D
:102C5000105C401A7047C0461B1C1D1D1E1E1E1E08
:102C60001F1F1F1F1F1F1F1F70B500260C4D0D4C6F
:102C7000641BA410A64209D1002601F011FA0A4DE6
:102C80000A4C641BA410A64205D170BDB300EB58DA
:102C900098470136EEE7B300EB5898470136F2E764
:102CA000AC400000AC400000AC400000B040000070
:102CB00003008218934200D1704719700133F9E77D
:102CC0002E2E2F68616C2F7372632F68616C5F69A1
:102CD00032635F6D5F73796E632E63002E2E2F68F3
:102CE000616C2F7372632F68616C5F696F2E630074
:102CF0002E2E2F68616C2F7372632F68616C5F7367
:102D000070695F6D5F73796E632E63002E2E2F687E
:102D1000706C2F6569632F68706C5F6569632E63E3
:102D20000000000007000000070000000D00000088
:102D3000190000002E2E2F68706C2F736572636F60
:102D40006D2F68706C5F736572636F6D2E6300002A
:102D5000030000001400200000010000EA00000051
:102D6000D7000000006CDC020C0020000000020014
:102D700000000000FE0000009C160000721600001B
:102D80007216000090160000B4160000BE16000077
:102D90007216000072160000721600007216000013
:102DA0007216000072160000A616000072160000CF
:102DB00072160000721600007216000072160000F3
:102DC0007216000072160000CE1600008616000073
:102DD00072160000721600007216000072160000D3
:102DE00072160000721600007216000072160000C3
:102DF00072160000721600007216000072160000B3
:102E000072160000721600007216000072160000A2
:102E10007216000072160000721600007216000092
:102E20007216000072160000721600007216000082
:102E30007216000072160000721600007216000072
:102E40007216000072160000721600007216000062
:102E50007216000076160000BF000202030403048D
:102E600004050800FF06FF0600011A02310696203D
:102E700005007E032107316333520022079B6E93C6
:102E8000AC00230D3D6257A63454355499120024EA
:102E90000A3D629B57BD53DA112508AB6613536791
:102EA00000260A3C621753B36AA6002705196F3340
:102EB0002807B262A79A012908B2621353A5002A13
:102EC0000A2C6213931A49C5002B0A2D629B511CD0
:102ED00032A3082C079B5EA74A002D060C6A33021A
:102EE0002E079B5E9756022F0834625FB633003080
:102EF00008B36257B92A003107B36297646B320A8C
:102F00003462A7624E2A8F00330A34623362D44897
:102F10002605340A34621B5535624E00350A346288
:102F200033F446322900360A3462A7F28A32290085
:102F3000370A34623372CC314700380A3462A762F0
:102F400052512605390A3462A7A24C3B29003A07A0
:102F5000AA6233E2083B08B35E672355023C07B31D
:102F6000629BCA5C3D081C6633321A013E08B3629C
:102F700093CB54023F09B362D74C192600400C454D
:102F80005E2BA35C492559430541093462A7A21C65
:102F90005306420A3462B3E248518E044309346254
:102FA000A7A22E930244093462B3A27324004509F8
:102FB000346233F4CA79044609346233F4CA350002
:102FC000470A3462A7A24E3329004809346213E548
:102FD0009866004907B362B3626B4A09346237737B
:102FE0005546004B093462135592A9334C0834629C
:102FF00093BB47004D09346213C711CD004E09340D
:103000006213D75867004F093462A7A233290050D2
:103010000A3462B3A21C29670051093C5EA7A25C76
:103020006E14520A3462B3A21C29CA00530A3462D5
:10303000A762CAA84C0A5408B362B36217005508C5
:103040003462133D930256093462139D492A005796
:1030500009346213CD71C400580A34621365922A90
:10306000CA00590B35629375AA33CA28025A09342B
:103070006233726C8F005B07B3623362735C0A3435
:10308000629333CA28A31C5D07B362339B235E0699
:103090009372D7005F060C5E3302600692721303D0
:1030A0006108246237A24C03620A346293F38A7285
:1030B00024006307A36237B300640934625F8D287C
:1030C000D30065082462A7D2C80A660934625B95FA
:1030D00033470067092C5EA762DA49016809346248
:1030E00093F38A66006908B3629791AC066A09BBDC
:1030F0005E9B61A92A006B09346293CB91A20C6C90
:1031000007B36223BB066D092562A35A2AA9026E82
:10311000072462B3A2196F082462A7A24C0A70099F
:103120002C5EB3E248390371082C5E3762DA05720F
:1031300008246293929D017307A36237F202740A16
:10314000346297E3CC2926007507246213CD3476C8
:1031500007A36293AC0A770925629355525D007804
:1031600008246213935431790A2C5E13651A3129AD
:10317000007A082462336239027B0B3C62AB324A2C
:103180001AC58C047C053163737D0C3C62A351CC61
:1031900048659424007E071472975402A005007EAF
:1031A00003A1073163934600A209345E1B476ACE30
:1031B00004A30A34625B8D98934A00A40A2D62939B
:1031C000D34C71E500A50B3562935335641C320274
:1031D000A6063963B306A70A3C6237F28A698F04F0
:1031E000A8068B769302A90A3562B7AA3955B500AD
:1031F000AA07AB6AB7921EAB081C6697544C01AC89
:10320000069B62330BAD058B6A33AE093562F7A1BD
:10321000965A00AF058B7633B0069B6ED705B10882
:10322000AB6297564603B207AB6AD74C69B307AB9C
:103230006AA32F00B4069272A700B5092C5E13CDC5
:10324000913200B60C356237461A29A998620AB73E
:1032500005096B13B806925EA700B907AB6A9764BD
:1032600035BA07AB6AD78D06BB081C669362520954
:10327000BC0A3C62935B518D9800BD0A3C6293ABE3
:10328000A4728C03BE0C3C629351CC48552326009B
:10329000BF09B36297618AA902C00A3C6297515480
:1032A000714C19C1093C625BAB38A60CC20A3C6286
:1032B000A76252714C19C30A3C62975454714C195D
:1032C000C40A3C62133354714C19C50A3C62A762AC
:1032D00052714C19C609346237526BA84AC70A3C6E
:1032E0005EA7A22E938C00C80A3C6297511A7AE519
:1032F00011C9093C625B0EBDF208CA0A3C62A7E232
:10330000D82B8F00CB0A3C6213331A7AE511CC0913
:10331000BB6293D38AD500CD09BB629BD28AD5000C
:10332000CE09BB62578D14AB01CF09BB6293F28A01
:10333000D500D00B356237E348658A6901D10A3C74
:10334000629754B9D49401D20A3C62975154D14C3B
:103350000AD3093C625BAB682605D40A3C62A762CB
:1033600052D14C0AD50A3C62975454D14C0AD60A21
:103370003C62133354D14C0AD7069B62933AD80966
:10338000346237D2918E04D9093C629751E94C0AD4
:10339000DA083C62DB742605DB093C62A7A26752AF
:1033A00000DC0A3C6213338ACEA400DD0B3D625F71
:1033B000E65467945104DE0A3462935794236500FF
:1033C000DF093462A7A2EA5409E00A3C629751C6B9
:1033D00023CA34E1093C625B5323CA34E20A3C62EB
:1033E0005B6538A24C03E30A3C629754C623CA3497
:1033F000E409346257C311651AE50A3C62A7629278
:1034000023CA34E609256233A2324700E708AB5EDF
:1034100037B34A00E80B3C629751C62A8DAC00E9ED
:103420000A3C625B532A8DAC00EA0B3C62A76286C1
:103430002A8DAC00EB0A3462574395465600EC09DE
:10344000BB62933392D500ED09BB629B3292D500EB
:10345000EE08BB62D796D500EF08B36293B2AC0614
:10346000F00C3C62936295511A312900F10A3C62DA
:103470009754862B9A01F20B3C629751C62ACAA434
:1034800000F30A3C625B532ACAA400F40B3C62A717
:1034900062862ACAA400F50B3C629754C62ACAA4C5
:1034A00000F60A3462133354512605F708AB6297CD
:1034B000D14609F809246237D2482301F90A3C624F
:1034C000975186D14C03FA093C625BE368A601FB85
:1034D0000A3C62A76246D14C03FC09346213338A6A
:1034E000661AFD0B445E5BE328D3884901FE0A3C63
:1034F0005E93F38A23E50CFF0C3C5E13338A328D16
:1035000098140000000004FFFF0000005F000303A8
:1035100005050405061614FDFC0EFC0EFE026D05E5
:10352000BA080B200600602C01210FC42534233972
:103530001C2C2265C92122012209A5644621E145EE
:1035400000231B8B616429114BC412D96172984905
:10355000C412D961729849C412B14408242149A601
:103560005B1987846B924829520A5582B643E8104A
:1035700033464AA14AA8129195E39020002529EEEE
:10358000E17B35938A26415948280B456511A928C6
:103590007D2487C6C6225134240B8A64C1982CA688
:1035A000148C4EE330002624D0258C4B078AE4206F
:1035B000991C2493832672581D3AABD984135270F8
:1035C000561D52A7B4DA21741B012707A2642E717D
:1035D00018281105A23327128D442399DE66B2996B
:1035E0005000291005A2332194CD64337D1A8946F9
:1035F0006A002A10E7E045354A9A44442349649416
:1036000034022B154A215C2987C8217288F070305A
:10361000CA2172881C22042C0BE4602B23394446F7
:10362000D9002D0765E034F1102E0A84202C2339AF
:103630004424002F0FC6213CA918540C2A061583D8
:103640008A003013C9255C379C8C6492997F9BC893
:103650004493E10C00310BC7295C271C15F79F0E22
:103660003215C9255C47134D66B6896C3C1D4FA7C2
:1036700062D5C3A1003317C9255C47134D66B689CF
:103680006C2C9C83E41399DB44342B013416C9253C
:103690005C1F174F1923B3D028368A4D8293837449
:1036A0003C2D3518C9255C73889CE29038240EB1F6
:1036B000C5E6E389CC6D229A95003616C9255C577C
:1036C0005A91D924E3C988B2E66D229B8C843300D9
:1036D0003711C9255CF1509E8AE562B97875BC1135
:1036E000003815C9255C379449A4D4E24564348573
:1036F0008E556A4D46033917C9255C37144D6692BD
:1037000099B7C98434194F6436C96854033A0D24F3
:103710002534233944C4924344023B0F8465332348
:103720003944C4924364940D003C114A215C0F114A
:103730001339D32174081D4287083D0BC9A45CF1DD
:1037400040473C1C083E124A215C2187D021740866
:103750001D4226729643003F12C921545712DD6C58
:1037600013D958772431952C044027CF21847B1E10
:10377000CBE4A090AC241129916422924C4491890D
:10378000246A2289D244249A10E5A0D8587C0802E1
:103790004120CE1D741F07CB8173201D14998342D5
:1037A00072486C1E1B47A7076178181FC927D402EF
:1037B000421ECC21747198CD48C3D170341CCD66A3
:1037C00087E0D274329D4C27D3C970729001431D9B
:1037D000CC2174590AB18C25E33A840EA183E6A06A
:1037E00039680E89CC23E3184D5A03441FCE218437
:1037F00071980E69E3D178349FCC27F3C97C329F4E
:10380000CC27E3D17834241D8600451FCB216C7171
:10381000A00C2753C92C1499852223E171249C05FF
:1038200067A1C83832950C0F07461ECB216C71A0DA
:103830000C2753C92C1499852223E171249C056718
:10384000C139640E995B014721CD217C598A914889
:1038500063D158328744E690C81C36874D0FE1D1BA
:1038600074349D91A8A50800481ECE218451AC8CCB
:1038700047E3D178341E8D4787D278341E8D47E3D5
:10388000D178349E140B490AC5254C5119ED7F2976
:103890004A13CA1D645B9EEF936C429A9026C291B4
:1038A0006848044B1ECE2184512B4D8543E94C3C86
:1038B000924FE4103BE43E218FA833E29036A5D42A
:1038C0000C4C10CA2164519EEFAF91696428991D78
:1038D0000C4D2DD1219C612E9169555A6418998502
:1038E0006691596816998546A1596C129AC526A108
:1038F000598C360BCE66C1D968189CD462054E210E
:10390000CE218441AD5067D42035584CA10543A445
:10391000608C120C16A3C428313C1B8BCA21004FAB
:103920001DCE21846926D1C6A3F1640EB143EC10EB
:103930003BC40EB1439647E319896C04501ECC2159
:10394000747110CE4843CA9032A40C2933D2213866
:1039500007CD4173D01C3487D40151284E2283698E
:1039600026D1C6A3F1640EB143EC103BC40EB1D016
:1039700026A39168269951CA76A81C3A8983EAB091
:103980001100521FCD218471A00D49D3D174341D73
:103990000D6787E86C381BCE68C3D970369C182732
:1039A000005316CA21644709AD0C25D308D97A35CE
:1039B0005BCBD5D3245402541CCB216C7130ADCDDC
:1039C0006433D92C3887CC2173C81C3287CC21733F
:1039D000C8BC06551ECE218451AC8C47F3D83C366A
:1039E0008FCD63F3D83C368FCD63F3D83C38941B2E
:1039F000015622CF1D7461AC9067F320353C0D4F0A
:103A0000E3B3386416074DE2B0491C3887CEC17164
:103A1000781C005730D41D9C61315568C4D9701A88
:103A2000A4D1C2335A78460B5322943864129AC4F4
:103A30002193D0240EA1D161C3396C380786E3D01D
:103A4000701800581FCF218C63AA11A734F9480EB3
:103A5000B1C3E8503AAC0EB3434464E174481B531D
:103A60008A06591FCD217C61A35065D3204D3A0BA6
:103A700053E2903A680E9BC3E6B0396C0E9B436EDE
:103A8000005A19CC216CF1102E4FC294289D0E992A
:103A900043E8AC1172645C3E1C025B0A04A633610D
:103AA000D2FF13015C12C8214C21968BE562B958F4
:103AB0002E968BE562015D0A04A23341D2FF930189
:103AC0005E0E08A14D27961269222D42A2005F07C3
:103AD00049604BF140600885A43E215B1461122AC5
:103AE000215C739A4D8463DA646D329B8C98066214
:103AF0001FCC1D644107CD4173D01C34074D88B4E1
:103B0000D174329D4C27D3C974421B496A00630F9C
:103B1000292154571A19CB5B2333190900641DCC92
:103B2000216C4F07CD4173D01C34A48C6694E9649A
:103B30003A994EA693E96846A41065122A215C477B
:103B40001C4D86C6C3413E8E0C652500660EC821FD
:103B50003C4793EC3AB44DF7B106671EEB215B0F7F
:103B6000924346C6D14C2813CA4643A31C74081E70
:103B700022D289583294DD00681ECC216C4107CDD9
:103B80004173D01C34074D6A24D270341C0D47C3D6
:103B9000D170349C940A690CC52134335A0792F6CB
:103BA0004B016A0F471633B91D8DB83F5A2C2212AC
:103BB000006B1DCC216C4107CD4173D01C34078DA7
:103BC0004A33E1283C115F27C4116D46A9186C0ADD
:103BD000C5213441DAFFA5006D183321A441A9D8CD
:103BE0004825D27069B8345C1A2E0D97862BA5062D
:103BF0006E152C216C41A99148C3D170341C0D471E
:103C0000C3D170522A6F0F2B2164579C4DA6BE4E14
:103C100066C31A00701CAC1D633122D246D3C9742E
:103C2000329D4C27D3096D3421CE4173D01C5207ED
:103C3000711CAC21634712CD28D3C974329D4C2727
:103C4000D3D18C489983E6A039680E29720F2821B8
:103C50004C4111512423C974C71A007312292154ED
:103C60004509C924C388F16A2D4A2225007411A789
:103C70002144178E0A67A6E19E22A3100500751540
:103C80002C216C51220D47C3D170341C0D47C31138
:103C90005B850076142A1D4C519A0C43C3D82838F2
:103CA0008A92E972881000771B301D7C51294D667D
:103CB000C3D06C181B91822352944426D1857288FC
:103CC000500878122B216461619351A4F579554213
:103CD00093512806791BAB2163519B4C43D3D82CBD
:103CE000388B4EC293F81C32074565D1497C0E7A59
:103CF0000E29215471A0D588DC8AC403017B0E05EE
:103D0000A2332712EDA4281BED26147C07C2315CD8
:103D1000F1037D0F05A23321948DB60945A23DA97B
:103D2000017E0B6A2465B572888C46000000000491
:103D3000FFFF0000060006060606020407303000FA
:103D40000030003000003F00000236403F30A9C381
:103D50002F44D910211E65B364982B7369AA4DC5F1
:103D6000993A93E70931A4A5A4989213823A54068C
:103D70008B68092EE115BC821FF00324C13BA145CD
:103D8000B00AD5814A4C4DC80000415F302CC217A3
:103D900044D910211E65B364186CC2453C08E81074
:103DA0009B46C682881649E351249026815096C4CA
:103DB0006151100726391C198590681281B2A93803
:103DC0005367F23C2186B494145372425087CA6000
:103DD000112DC125BC8257F0037E80247827B408BA
:103DE00056A13A5089A90919004251EE6BC29FC0F1
:103DF0003A480B68E13C988832412A8D0B91296C36
:103E0000848EEFE98378904EC249B8C936D9285AD2
:103E100025B360970B63652C0DC5913E90C82008B3
:103E2000AC4145A80A94813A4C09691135A0C723D1
:103E3000692A0C46E91CA4610200437E302CC22F83
:103E400044E908211E65B364982B73692A0EC5994D
:103E50003A93E70931A4A5A4989213823A54068BA9
:103E600068092EE115BC028981524A4C25683894B4
:103E700080014D02063411080DA1591001C7E0243C
:103E800026C373A00C50A1324403CBF0110EC341E2
:103E9000980C869164308C24836124190C23C960AA
:103EA000184906C34832184692C130920C86916474
:103EB000308C260242D4000044596E7BC22D012B67
:103EC000B41254A2D4801A9D0813A954904A2323F3
:103ED0007205AC4155A010D2226A408F47D2549847
:103EE000CB9251360927D9281A5566C11482024B44
:103EF00010892B61242C0482B00C8CA1323806AAC4
:103F000000152882449806D64012600229A00512A6
:103F100000456E302CC22DC26A508DAD848EA0112A
:103F20001A0366600C9881316006C680191A8246B1
:103F3000E00C27637484904FD251368B66E5100EE7
:103F4000CC41080C06C66018188361600C8681316C
:103F50000C01E1C01C04C7A2596D944EF24142C746
:103F6000C8380D1C41233406CCC018300363C00C84
:103F70008C013334048DD01156836A6C25580000AF
:103F8000000004FFFF000000C521000049220000DE
:103F90007522000050240000262400003824000070
:103FA0004A24000050240000502400008E26000007
:103FB0009A260000D62600008A260000D626000099
:103FC0008A260000BC260000CA2600001815061626
:103FD0001716171617150116031600162B162B1693
:103FE00009153C1504FE141500160F1530163A1568
:103FF000611698163116FF1582161215501687197C
:10400000FF00000018151219FF0000000001783CA5
:104010006464326400093D00000428962613000001
:10402000300198002B3133C2B04300003733345095
:10403000000000002B3136C2B04300003733365049
:10404000000000002B3134C2B0430000373337503A
:10405000000000002B3130C2B0430000546875727C
:10406000736461792032352D30342D323032340092
:104070004E6F772031332E3643202C203733356D69
:104080006D2C2036332500004944204D3433300058
:1040900052462D37396442004220332E39345600BF
:1040A000F8B5C046F8BC08BC9E467047CD0000007D
:1040B000F8B5C046F8BC08BC9E467047A500000095
:1040C0000B4000000D0000000F0000000036170438
:0840D0000C00E70701000000ED
:00000001FF
