:100000007832002009010000050100000501000010
:1000100000000000000000000000000000000000E0
:1000200000000000000000000000000005010000CA
:1000300000000000000000000501000005010000B4
:100040000501000005010000050100000501000098
:10005000D1070000050100000501000005010000B6
:10006000050100000501000005010000000000007E
:10007000000000000501000005010000050100006E
:10008000050100000501000005010000000000005E
:10009000000000000501000005010000050100004E
:1000A0000501000010B5064C2378002B07D1054B45
:1000B000002B02D0044800E000BF0123237010BDD4
:1000C000080A002000000000B8AA0000084B10B584
:1000D000002B03D00749084800E000BF0748036829
:1000E000002B00D110BD064B002BFBD09847F9E741
:1000F000000000000C0A0020B8AA0000B8AA000006
:1001000000000000FEE7000010B5124A124B9A42B0
:1001100009D0114B0F4A03E011681960043304320F
:100120000E498B42F8D30E4B02E000221A600433D2
:100130000C4A9342F9D30C4AFF210C4B8B4393603A
:100140000B4A516880230B4353600A4B98470A4B74
:100150009847FEE7B8AA000000000020080A002027
:10016000080A00207822002000ED00E000000000D6
:10017000004000414D4C0000952C000010B5024895
:10018000024B984710BDC04610E000E0AD010000F2
:10019000EFF31083036072B6BFF35F8F7047BFF356
:1001A0005F8F036883F310887047000010B5024B1F
:1001B0001860024B984710BD240A0020ED11000082
:1001C00010B5044B1C68044B984701002000034BFA
:1001D000984710BD240A002085060000F911000090
:1001E00010B5044B1C68044B984701002000034BDA
:1001F000984710BD240A00209D060000F911000058
:1002000070B50225002407E00D4AB358002B00D03A
:10021000984770BD013AD5B2AC42FAD82B195B10A1
:10022000DAB2012AF5D8FF210B40DE000449891912
:1002300049688142E8D0EDD20132D4B2ECE7C04641
:10024000280A002010B5002309E0084AD9005018F8
:100250000124644244600020885001339BB2012B8A
:10026000F3D90348034B984710BDC046280A002025
:1002700001020000E1060000F0B5D6464F464646B2
:10028000C0B584B00023012B0CD8DC00324A12190F
:100290005268824202D00133DBB2F4E72E4BE150C8
:1002A000012600E0002600290CD0002E42D10023B8
:1002B000012B11D8DA00284D5259002A07D00133FA
:1002C000DBB2F5E7002E40D0244B984737E0DC0046
:1002D00061512C1960600126002201E00132D2B286
:1002E000012A27D8012B25D801931B49DC000C19C2
:1002F0006768D400091949688F42EFD24C1CEDD0D1
:1003000002A98C46144CA046D400A14644464C4455
:10031000654682CC82C50199C9008A464946414456
:1003200044465444A0CCA0C145465544614690C9BA
:1003300090C5D3E7002E0BD00121084B984704B09D
:100340001CBC90469946A246F0BD0D204042F6E7FF
:100350000D204042F3E7C046280A00207D07000038
:1003600010B584B01438848B01AB1C801400029249
:10037000064A5A8003911900054B9847002802D17C
:10038000200004B010BD0400FAE7C0460080FFFF63
:10039000390C000010B584B01438848B01AB1C807C
:1003A00014000292064A5A8003911900054B98479F
:1003B000002802D1200004B010BD0400FAE7C046B6
:1003C0000180FFFF390C000070B504000D00431ED2
:1003D0009841C0B25E220749074B98472900200088
:1003E000064B9847002803D1054BA361054B636179
:1003F00070BDC0460092000059060000150B0000B9
:10040000950300006103000010B5014B984710BD33
:10041000C10B00008905890D8023DB001A400A43C7
:10042000828310007047000070B586B0040016008B
:100430001D006B46D9710733828B03A90A80012204
:100440004A6000224A808B60074B9847002801D001
:1004500006B070BD03A9054B4B808E604D60200037
:10046000014B9847F4E7C046390C00000180FFFFBC
:10047000143008600020704770B504000D001600AD
:1004800000280ED000290AD0012034220649074B4B
:1004900098472368320029002000984770BD00204B
:1004A000F3E70020F1E7C0461C9200005906000067
:1004B00070B504000D00160000280ED000290AD0E7
:1004C00001203D220649074B984763683200290006
:1004D0002000984770BD0020F3E70020F1E7C046F8
:1004E0001C9200005906000070B504000D000028A1
:1004F00017D0002913D0012040220B490B4B9847FD
:100500006560201D29000A4B9847002806DB094B2F
:10051000A382094B2361094BE360002070BD0020DA
:10052000EAE70020E8E7C0463092000059060000E4
:10053000550E00000080FFFFED050000B105000032
:1005400010B50400431E9841C0B257220349044B22
:100550009847201D034B984710BDC04630920000BD
:10056000590600000D10000030B587B004000D00E2
:10057000002815D0002911D00120B32209490A4BC7
:1005800098472B6803936B680493AB6801930593BA
:10059000201D03A9054B984707B030BD0020ECE7AC
:1005A0000020EAE7309200005906000045100000E4
:1005B00070B584B004000E001500431E9841C0B20F
:1005C000A3220749074B984720000C3800230293C9
:1005D0000196039501A9044B984704B070BDC0462D
:1005E00030920000590600006905000070B584B023
:1005F00004000E001500431E9841C0B2872207492F
:10060000074B984720000C3802960023019303956E
:1006100001A9044B984704B070BDC0463092000059
:10062000590600006905000070B504000D0000289F
:100630000CD0002908D00120BD220549054B984760
:100640000C342C60002070BD0020F5E70020F3E79B
:100650003092000059060000002800D100BE70470B
:100660000300064A1268002A04D0044A1068C3181E
:10067000136070470249014A1160F6E7380A00200A
:100680007832002010B503011B1A580101380A21E5
:10069000014B9847013010BD4930000003011B1A7F
:1006A0005A0164205043704710B5084A5368062128
:1006B0000B435360064B9847064B98470820064C5F
:1006C000A047064B9847F720A04710BD00400041C7
:1006D000E90800002D1100008D08000061110000E4
:1006E000234B5B78DB09FBD1214B5B78DB09FBD12A
:1006F0001F4B1B789B070AD500221D4B1A701C4B01
:100700005B78DB09FBD11A4B5B78DB09FBD101225B
:10071000174B1A70164B5B78DB09FBD1144B5B78D7
:10072000DB09FBD1124B00229A705A60822292019F
:100730005A61802252059A6180229203DA611A7806
:1007400002210A43D2B21A70094B5B78DB09FBD154
:10075000084B102280215A50BFF34F8FBFF36F8F89
:100760000131FF315A501A60034B18600020704766
:100770000018004000E100E03C0A002030B50023F2
:10078000012B0BD8DC00104A12195268824202D0A9
:100790000133DBB2F4E70C4BE25C00E0FF22FF2AFE
:1007A0000ED0002906D101239340084A93601361BB
:1007B000002030BD01239340044AD3600020F8E7B5
:1007C0000D204042F5E7C04664920000001800404A
:1007D000F0B583B0274B1A69D9680A400192019A93
:1007E0001A61254B1868431E9841C0B2D222234992
:1007F000234B984701256D4231E0DB00214AD31895
:100800005D686B1C03D01C4B1B68280098470122B5
:10081000A240019B9343019301981B4B98470138D9
:1008200044B2631C14D00226002001E00139CEB28C
:10083000B042E6D833185B10D9B2FF221340DF0074
:10084000104ABA5CA242D8D0F0DA0131C8B2EFE760
:10085000084B1A69D9680A400192019A1A61019BF2
:10086000002B05D00198084B9847013844B2D8E7CF
:1008700003B0F0BD001800403C0A00204C9200007C
:10088000590600006492000075330000C30709D5C3
:10089000114B802252009A60104A5A600E4B5B78CE
:1008A000DB09FBD1830709D50B4B0222FF329A608B
:1008B0000B4A5A60084B5B78DB09FBD1030709D56B
:1008C000054B0422FF329A60064A5A60024B5B785D
:1008D000DB09FBD17047C046000C0040000709004F
:1008E0000103290003030900064B1A7AD2B21A72D7
:1008F0005A7AD2B25A729A7AD2B29A72DA7AD2B258
:10090000DA72704700040040024B9C466044800A43
:10091000C0B2704700F8FFBD038ADB0B08D1036843
:10092000022213430360038ADB0BFCD100207047D3
:1009300004204042FBE7000010B50B4B9847020033
:100940000020002806D0094A09490020094B984791
:10095000002010BD43001B18D900074BCB5C9A4206
:10096000F7D00130C0B2ECE70909000066030000CF
:1009700074920000590600009092000070B50500C6
:100980000469431E9841C0B25C4A5D495D4B98477B
:1009900063685D4A13406360238ADB0BFCD12A88BD
:1009A00052006B8801210B401343DBB22375238A6D
:1009B000DB0BFCD12E69554AB37BDBB21800511E0C
:1009C000002A02D00A009B07F6D0238ADB0BFCD159
:1009D000238A9BB2C20750D59A0710D50122A27371
:1009E0006A88802149010A436A806A8848490A4026
:1009F0006A80DB0700D47CE00520404263E05B07AF
:100A00000BD4686800282DD16B881BB2002B20DB2B
:100A10006B883F4A13406B8055E06B68002B04DD08
:100A20006B888022520113436B806B881BB2002BB2
:100A300006DB6B88364A13406B800220404242E05E
:100A40006268C0239B0213436360238ADB0BFCD1E3
:100A5000EFE76268C0239B0213436360238ADB0BCA
:100A6000FCD1D5E7AB681B782376AB680133AB606C
:100A70006B68013B6B60002025E082073CD56A680B
:100A8000002A31D05B072FD4013A6A60002A07D1CF
:100A900062688023DB0213436360238ADB0BFCD193
:100AA0006B68002B07D16B881BB2002B0CDB6B88AB
:100AB000174A13406B80AB685A1CAA60227E1A70DA
:100AC0000223A373002070BD6368114A1340636062
:100AD000238ADB0BFCD16268C0239B021343636053
:100AE000238ADB0BFCD1E2E70223A37302204042FE
:100AF000E9E704204042E6E70020E4E78105000042
:100B00007492000059060000FFFFFBFFFFFF00008A
:100B1000FFFEFFFF70B506000C000800234B98474E
:100B200005003000431E9841C0B2214A2149224BA2
:100B300098473461238ADB0BFCD1238ADB0BFCD181
:100B400023689B0707D500232360238ADB0BFCD196
:100B5000238ADB0BFCD101232360238ADB0BFCD12E
:100B6000238ADB0BFCD16B005B19DA00134B9B185B
:100B70005B68022293432360238ADB0BFCD16B006A
:100B80005B19DA000D4B9B189B686360238ADB0BB3
:100B9000FCD10A4A6B005819C10008005118898914
:100BA00061811218138AF381002070BD3909000099
:100BB000D7040000749200005906000090920000D3
:100BC000F8B506000469184D431E9841C0B2A12231
:100BD000D2002900154FB8473069431E9841C0B272
:100BE000134A2900B8472368022213432360238A4B
:100BF000DB0BFCD104200F49238ADB0BFCD1228ABA
:100C0000120903331340012B08D001390029F3DC0A
:100C10000138002804D010232382ECE70020F8BD1F
:100C200006204042FBE7C0467492000059060000CF
:100C300009050000FFFF0000F8B505000E0004697B
:100C4000431E9841C0B27B4A7B497C4FB847286914
:100C5000431E9841C0B27A4A7749B8473000431ED4
:100C60009841C0B2774A7449B8476B88DB0500D514
:100C7000DCE0728880235B009C461A4372802A0065
:100C8000310089C989C26268634613436360238A5D
:100C9000DB0BFCD128006C4B9847002800D17DE08D
:100CA0006B886A4A13406B80F8BD0520404286E09D
:100CB00073881BB2002B04DB6B88644A13406B8083
:100CC000F2E76268C0239B0213436360238ADB0B55
:100CD000FCD1F1E75B070BD4686800282DD16B8845
:100CE0001BB2002B20DB6B88584A13406B8055E009
:100CF0006B68002B04DD6B888022520113436B80EC
:100D00006B881BB2002B06DB6B88504A13406B804C
:100D10000220404242E06268C0239B0213436360AA
:100D2000238ADB0BFCD1EFE76268C0239B021343ED
:100D30006360238ADB0BFCD1D5E7AB681B78237695
:100D4000AB680133AB606B68013B6B60002025E052
:100D50008A0769D56A68002A5ED05B075CD4013ACD
:100D60006A60002A07D162688023DB021343636054
:100D7000238ADB0BFCD16B68002B07D16B881BB27D
:100D8000002B39DB6B88314A13406B80AB685A1CEF
:100D9000AA60227E1A700223A37300206B88DB05F1
:100DA00000D481E72F692A4ABB7BDBB21900501EB1
:100DB000002A00D179E702009B07F5D00020002827
:100DC00000D075E7238ADB0BFCD1238A9BB2CA07CC
:100DD000BED59A0700D47DE70122A2736A888021DC
:100DE00049010A436A806A8818490A406A80DB0719
:100DF00017D505204042D1E76368144A1340636069
:100E0000238ADB0BFCD16268C0239B02134363601F
:100E1000238ADB0BFCD1B5E70223A37302204042F7
:100E2000BCE704204042B9E70020B7E70620404273
:100E30003AE7C0469B050000749200005906000086
:100E40009C0500009D0500007D090000FFFEFFFFDE
:100E5000FFFF000070B506000C000800614B9847CA
:100E60000023002B00D16CE00025002E00D173E0A0
:100E7000002C00D16EE001205B4A5C495C4B984736
:100E8000002D00D1ABE0238ADB0BFCD1238ADB0BE6
:100E9000FCD123689B0707D500232360238ADB0B43
:100EA000FCD1238ADB0BFCD101232360238ADB0BDB
:100EB000FCD1238ADB0BFCD134602B786A781202D8
:100EC0001A43AB781B041A43EB781B0613431C220E
:100ED0001340082B42D0002C00D17CE0002D00D123
:100EE00077E00120434A4149414B98472B786A7883
:100EF00012021A43AB781B041A43EB781B06134308
:100F00003D4A13402360238ADB0BFCD12B796A799D
:100F100012021A43AB791B041A43EB791B061343E5
:100F2000364A134080229202134363602B7BA372E4
:100F30006B7B23722B795B074FD101233371002028
:100F400070BD002802D00133DBB28AE71D012C4BB3
:100F50005D198AE700208FE700208DE7002C36D04E
:100F6000002D32D00120274A2049214B98472B7869
:100F70006A7812021A43AB781B041A43EB781B06FB
:100F800013431D4A13402360238ADB0BFCD12B79CA
:100F90006A7912021A43AB791B041A43EB791B06D8
:100FA0001343194A134363602B7A6A7A12021A4375
:100FB000AB7A1B041A43EB7A1B06134363616B7B0A
:100FC0002372238ADB0BFCD1B4E70020CBE700209F
:100FD000C9E7002086E7002084E70223AEE70D2062
:100FE0004042ADE709090000A30800007492000028
:100FF0005906000072080000FCFEFFFFBF3FFDFF26
:10100000A8920000830800004000020010B5041EF2
:101010000DD00368002B08D00120064A0649074B73
:1010200098472068064B984710BD0020F5E7002040
:10103000F3E7C0460A090000749200005906000058
:101040001909000070B588B00D0004680B6803939F
:101050004B6804930023059306930679002814D067
:10106000002C10D001202D4A2D492E4B9847238A61
:10107000DB0B4FD1238ADB0BFCD123689B0718D4F1
:101080001420404244E00020EDE70020EBE700227E
:1010900026E058780002014302330393013205929F
:1010A00089B221830598AB68984202D3069A93428D
:1010B00029D9A37BDBB25A07E9D5228B92B20499D6
:1010C000002908D0481C04900A70012E03D9881CFE
:1010D0000490120A4A70069A019201320692012285
:1010E000002ADFD10699059A9142DBD3DB07D9D5D7
:1010F000039B002B05D0591C03911978012EC8D8E9
:10110000CCE70949CAE7A37B9B07FCD00323A37361
:1011100008B070BD04204042FAE7C046010A000052
:101120007492000059060000FF0100000B4A936909
:101130001B0C1B04FE21C9030B400E210B439361C2
:10114000137F11310B401377044BDB685B07FBD532
:10115000024A936980210B43936170470008004065
:101160000222194B9A84184BDB68DB06FBD5174A21
:10117000154BDA62164B1B689B0E3F2B1BD09B0254
:10118000802292001343104A936202239384938C2B
:101190005B0713D50C4BDA68D0231340D02BF9D161
:1011A000094A938C80210B439BB29384094B5B7853
:1011B000DB09FBD17047FC23DB01E4E7024BDB6872
:1011C000DB06FBD5ECE7C046000800400000010448
:1011D00024608000000C0040024B034A5A60052244
:1011E0001A60704710E000E0FFFFFF0010B5014BF0
:1011F000984710BDD9110000080E0BE00B4B0C48AE
:1012000058609860094B1B68DB03FBD5094B9C4673
:1012100061441000421ED2B20028EFD1034B596046
:101220009960024B1B68DB03FBD5704710E000E0C0
:10123000FFFFFF00010000FF034B1B78FF2B02D0D4
:101240000133014A13707047410A0020034B1B7899
:10125000FF2B02D00133014A13707047400A00206F
:10126000024B187800221A707047C046410A0020CD
:101270008022D201C023DB055A6170478022D2014F
:10128000C023DB059A61704770B5C025ED05802647
:101290003603AE611420034CA0476E611420A047B2
:1012A00070BDC046E101000010B503000A0003490B
:1012B00008681900024B984710BDC04690210020D5
:1012C0007904000010B582B06B46DC1D002323704A
:1012D000044B186801222100034B9847207802B084
:1012E00010BDC04690210020B104000000B583B0BD
:1012F0006B46D91D0870034B18680122024B9847B2
:1013000003B000BD902100207904000070B50D00ED
:10131000140001B2802212010548064B9847A2B280
:10132000054B18682900054B9847C043C00F70BD96
:1013300010210020150400004C2100207904000039
:1013400070B50C00150001B2064E8022120130006B
:10135000054B98472B00220000213000034CA0478A
:1013600070BDC046102100201504000029040000B3
:10137000F0B5CE46474680B5C022D20580231B0378
:1013800093619360354B8024E4059C6234499962F3
:101390005325585D0121884358558020C001906134
:1013A000906030489862C020000681469862053DF2
:1013B000585D8843585580200002906190602A480B
:1013C0009862484698620135585D88435855802098
:1013D0004002506190609C62244898620135585DDB
:1013E000884358558027BF0257602148986221489A
:1013F000986257600135585D8046042084466046F7
:1014000046460643F0B258559761585D8843585593
:101410008020C002506190609C621748986201353C
:10142000585D8843585580200005906190609C620B
:10143000124898625B24185D88431855802000018B
:10144000906190600E4A9A624A469A624B201A5CFA
:101450008A431A540CBC90469946F0BD00440041A2
:10146000080000C00040004000800040010000C0B3
:1014700000000240020002C0040000C0000800C0DA
:1014800000080040F0B5C64600B5C021C90580235C
:101490005B004B618B60304B304A9A62C02212066F
:1014A00094469A624824185D0126B04301221043F5
:1014B000C0B218553427D85D0F25A8430224A04692
:1014C00044462043C0B2D8558020800048618860DF
:1014D000234898626046986249208446185CB0436D
:1014E0001043C0B264461855D85D3A3C20402024D1
:1014F000A44664462043C0B2D8558020C00048604E
:1015000018499962184999621637D95D04208143B8
:10151000D955D95DB1431143C9B2D95535215A5C6A
:10152000AA4344462243D2B25A54104A136A18437B
:1015300010620F4A0F4B5A800F4C10492000104B7D
:10154000984710492000104B984720000F4B9847B0
:1015500004BC9046F0BDC04600440041000100407C
:101560000002004000040240000002C000040040ED
:101570000D400000000C0040342100200008004213
:10158000E904000090210020290600004105000028
:10159000F8B51E4A136A20210B4313621C4B1D4AE7
:1015A0005A801D4A5A801D4C1D4920001D4B9847EA
:1015B0001D4B5620195C042291431954195C0126D5
:1015C000B14301252943C9B219541B38195C0F27AF
:1015D000B94302273943C9B2195457215F5C974375
:1015E0005F545A5CB2432A43D2B25A541A5C483907
:1015F0000A4020210A43D2B21A540C4920000C4B55
:10160000984720000B4B9847F8BDC04600040040A7
:10161000000C0040104000000C430000102100208E
:1016200000140042C9030000004400414C21002086
:101630007104000009040000F8B51A4A1A4B5A80D8
:10164000C027FF0580237B60184B194A9A62194A0C
:101650009A624720195C042291431954195C0125B0
:10166000A94301242143C9B219541438195C0F2627
:10167000314019548021890479600F4999620F49DA
:1016800099625921585C904358545A5CAA432243AA
:10169000D2B25A541D395A5C32405A54084B9847BA
:1016A000F8BDC04603410000000C0040004400416A
:1016B00080000240000002C000000240000202C0A0
:1016C0004502000010B50A4B98470A4B98470A4B51
:1016D00098470A4B98470A4B98470A4919200A4CE1
:1016E000A0470A490720A047094B984710BDC046AC
:1016F000A906000071130000851400009115000078
:101700003916000039120000790200004D12000065
:101710007D010000002805D180221201C023DB05D5
:101720005A61704780221201C023DB059A61F8E7F5
:10173000002805D180221202C023DB055A617047C0
:1017400080221202C023DB059A61F8E7002805D148
:1017500080225202C023DB055A6170478022520268
:10176000C023DB059A61F8E710B5014B984710BD1F
:10177000A912000010B51439CCB2372C03D8A1003F
:10178000194841588F4600202CE0013A5042504100
:10179000C0B2164B9847012024E090B2144B9847F2
:1017A00001201FE091B21800124B9847012019E068
:1017B0000020114B9847012014E0501E8241D0B206
:1017C0000E4B984701200DE000200B4B984701205D
:1017D00008E00120084B98470120084B984701205A
:1017E00000E0012010BDC046B892000015170000AF
:1017F000E101000069170000311700004D170000DB
:1018000010B582B003681B7C5943C90089B2446B90
:10181000A446614400910021014CA04702B010BDD4
:10182000E9250000F0B5C64600B506003823C75CC0
:101830000133C55C03685B7C984600242A002100C4
:101840003000064B98470134E4B20135EDB2A742AF
:1018500001D9A845F2D804BC9046F0BD011800009B
:1018600010B503681B7C3822825C5A43D200406B5F
:101870000021014B984710BD954C000010B50400A5
:10188000024B98472000024B984710BD25180000D6
:10189000232600001323037000487047440A0020E9
:1018A00070B584B004000E0000931300084A094983
:1018B000094DA8470F256D442800084B98470100A3
:1018C0002A780096064B2000064CA04704B070BD55
:1018D0001D250000892700005128000095180000F0
:1018E000ED210000C1230000405C704741180878DA
:1018F00000024B78C01880B270470020704700008B
:1019000070B504000D0000212800284EB04720705B
:1019100001212800B047607002212800B047A07064
:1019200003212800B047E07004212800B04720714F
:1019300005212800B047607106212800B047A0713A
:1019400007212800B047E07108212800B047207225
:1019500009212800B04760720A212800B047A07210
:101960000B212800B047E0720C212800B0472073FB
:101970000D212800B04760730E212800B047A073E6
:101980000F212800B047E07310212800B0472074D1
:1019900011212800064EB047608213212800B0476D
:1019A000A08215212800B047E08270BDE918000030
:1019B000ED180000F0B50500067B07683878304167
:1019C000C4B27218D2B2072A0AD908239B1BDBB211
:1019D0007C1C2C607C789C400443E4B2083AD2B270
:1019E00001238B40013B234018002A73F0BD000007
:1019F00070B505000400603401660023237378335A
:101A0000C15C2000074EB047A0727923E95C20003A
:101A1000B047E0729223EB5CA3735A425341E373E5
:101A200070BDC046B519000010B50C00044B9847B6
:101A3000013CE4B20123A340C01A40B210BDC0462D
:101A4000B5190000012B09D0002B04D0022B08D0BF
:101A5000401A80B201E0801880B27047401880B20E
:101A6000FBE7801A80B2F8E7012B09D0002B04D0E5
:101A7000022B08D0801880B201E0401880B2704775
:101A8000801A80B2FBE7401A80B2F8E7F0B5DE4674
:101A900057464E464546E0B589B00D0093460300D3
:101AA00060331A7A92465B7A98464646D946804613
:101AB00029E00695434660339888DA889346524673
:101AC00069460A730C27CF5772B21B7C03930492AA
:101AD00005973900284FB8470790039B049A05994A
:101AE0005846264FB8474B46002B16D14346603325
:101AF0005B7B002B21D0A5422FD32D1BEDB20136ED
:101B0000F6B200239A46434660339C7A5346E41A61
:101B1000E4B2A542CDD30694CCE7434660339A7B2A
:101B200092234146CA546B461B8B039A00920200D3
:101B300007994046124FB847DDE743466033DA7BEA
:101B400092234146CA546B461B8B039A00920200B3
:101B5000079940460A4FB847CDE72A00524443460A
:101B600060331A726A46127C5A7209B03CBC9046C5
:101B70009946A246AB46F0BD691A0000451A00001E
:101B8000A51F0000F0B5DE4657464E464546E0B577
:101B900087B0040007006037574B98476B23E35624
:101BA00098467A23E15C3800544EB04702907B237C
:101BB000E15C3800B04705007C23E15C3800B047A9
:101BC00003900A23FB569A46002B5ADD4544EDB29A
:101BD0006D426BB21A003E7CB888330005920299C0
:101BE000474DA847834604903B009880F88833000F
:101BF000059A0299434DA8470200F880012E48D06B
:101C0000002E05D0022E54D0032E66D05B4607E08E
:101C1000534669460B810B895B449BB2404480B2BA
:101C2000009004992000384DA847002829D02300AF
:101C3000603300221A725A727623E15C3800334D09
:101C4000A84706007723E15C3800A84702900022ED
:101C5000310020002E4DA847012202992000A847FC
:101C600001213800294B98470028F0D12300603328
:101C70005B7A5BB29845DFDC230060339A7B92236A
:101C8000E254039807B03CBC90469946A246AB4646
:101C9000F0BD5B464146591A89B2013101339BB20E
:101CA00055466E4635813689801980B289B20491D5
:101CB000B6E753466A46138111895B46591A89B2C1
:101CC000013101339BB24246821A92B20132013095
:101CD00080B292B289B20491A2E75B4643449BB2C0
:101CE000524669460A810A89821A92B2013201304B
:101CF00080B292B294E7C046F1190000291A0000A0
:101D0000691A0000451A0000DD200000B519000026
:101D10008D1A0000F8B50E00846D1734FF2914D811
:101D200060290AD98823C35AE4186378002B27D086
:101D30002278964207D0E418F7E74029F5D98623A0
:101D4000C35AE418F1E7A01C1BE08A23C05A2418E8
:101D50002500002128000C4FB84724180221280034
:101D6000B84704358642F4D823781B0262781343BF
:101D700008D09E4202D0A378E418F5E7E01C00E00A
:101D80000020F8BD0020FCE7ED18000010B50400AD
:101D9000642021526621625219002000054B9847A9
:101DA000002805D001002000034B984780B210BDE9
:101DB0000020FCE7151D0000851B0000F8B504009D
:101DC0000D0016001F007023C35C012B11D0002BE7
:101DD0000AD0022B12D0032B15D03B003200290071
:101DE00020000B4CA047F8BDC36D98473618B6B21B
:101DF000F3E7C36D98472D1AADB2EEE7C36D984770
:101E0000361AB6B2E9E7C36D98472D18ADB2E4E7CC
:101E10008D1D0000F0B5CE46474680B583B0040066
:101E20000F0001921D001C4B98470023984604E0C8
:101E30003F18BFB2404483B29846297820006368B7
:101E40009847164B984220D00135154B9842F4D054
:101E50000300019A39002000124EB0477023E35C62
:101E6000012B0AD0002BE3D0022B0BD0032BE1D1A6
:101E7000019B1E1AB3B20193DCE7019B1E18B3B29B
:101E80000193D7E73F1ABFB2D4E7404603B00CBC7A
:101E900090469946F0BDC04629240000FFFF00008F
:101EA000FEFF0000BD1D000010B5024C4460024C56
:101EB000A04710BD11240000151E000030B5836D31
:101EC000002B1DD08123C1560D33C1540C3BC2568B
:101ED0000D33C254023BC35C002B11D0012B10D038
:101EE0007E23C356802404571D19A94204DADBB2AD
:101EF000E1B25B188E214354A24201DD8F23C4540A
:101F000030BD8233C356994201DA8E214354842373
:101F1000C3569A42F4DD8F228354F1E7014BC36527
:101F20007047C046FB18000010B50400836D8B425B
:101F300006D081657430034B98472000024B9847C8
:101F400010BDC04601190000BD1E000030B5058857
:101F50000C882C19A4B2A54203D99D4210D25C1E54
:101F6000A4B29D420ED294420ED9954200D32A00CB
:101F70009C4200D8230002809B1A0B80012002E0C3
:101F80001500EEE7002030BD0020FCE730B583B03F
:101F900006AC2578C48F121B92B2C46A0095A04784
:101FA00003B030BD70B584B0040008A805780E20D9
:101FB0006844018003A90A800A226A4413808C23A2
:101FC000E35C002B15D01388002B12D0012B03D912
:101FD000022D10D0032D14D001231D4032D14B33DC
:101FE000E25A03AB1B889A4203D84E22A25A93426C
:101FF0000ED304B070BD0288D31A9BB201330380A4
:10200000EAE703A90A88D31A9BB201330B80E3E7FE
:102010004A23E35A4822A25A0A2169440E206844FE
:10202000144EB0470028E4D0236B9E680A236B440B
:102030001B8803AA12880E21694409880095200094
:10204000B047D6E74823E25A3A3B6B441B889A4292
:10205000CFD84A22A25A9342CBD24E23E35A4C22E3
:10206000A25A0A21694403A8024EB0470028DBD1D6
:10207000BFE7C0464D1F000010B582B04C23C35AC5
:1020800093420BD84E23C35A9A4207D24823C35ACD
:102090008B4203D84A23C35A994201D302B010BDE0
:1020A000002300930133014CA047F7E7A51F000070
:1020B0008A4205D283420BD89A420BD9012008E00C
:1020C000834209D99A4201D8002002E0012000E0B1
:1020D000012070470020FCE70020FAE7F8B5060071
:1020E0000C001D0006AB1B884E21415A4C20305A73
:1020F000054FB847002806D04A23F15A023BF05A50
:102100002B002200B847F8BDB1200000F0B5DE4634
:1021100057464E46C0B582B0009017001E000AAB6D
:102120001D88B14229D98B1B9BB29946AF4228D951
:102130007B1B9BB29B46D94527D35B46CB46994632
:102140002B0035001E003B000F00190000239A46AB
:10215000AF4205D833000E0019002B003D001F00D0
:102160005B465C0824B28E4212D2012301931D4BC0
:102170009F421ED1013FBFB21BE0731A9BB299462A
:10218000D4E7EB1B9BB29B46D5E701239A46DFE7DA
:1021900001235B420193EAE72A0031000098124BC9
:1021A00098474B46E41AA3B21CB2002C0CDB013555
:1021B000ADB2AF420FD35346002BEDD13200290010
:1021C0000098094B9847ECE76A469288B618B6B271
:1021D0005B441CB2EBE702B01CBC91469A46A34696
:1021E000F0BDC046FFFF000079200000F0B5C646F4
:1021F00000B5884606AC2778072414400125A54081
:10220000EDB29226865DB446012E1FD900266146A6
:1022100001291DD007218A4394460268127C614639
:102220004A4392B242441100426B94466144002FEB
:1022300018D10A783243D2B26A400A700131013BA8
:102240009BB2002BF5D104BC9046F0BD2E00DEE71A
:102250000025DFE7012617E07600F6B26D00EDB24B
:10226000002BF0D00A783243D2B26A400A700134AF
:1022700007221440013B9BB2002CEDD1428F8918FC
:102280009222825C012AE5D9012AE9D00125E7E7FB
:10229000F0B501683823C45CA3B2DA0082870A7CF7
:1022A000D20042873922865CB7B2FA00C287A419ED
:1022B0004D7CAC4201DDEB1B9BB2DB009BB24024AA
:1022C0000253D318422283528A8A4423C252CA8AB2
:1022D0000233C252F0BD000010B5014B984710BD4B
:1022E0009122000030B583B004005223C35A542217
:1022F000825A5021415A5620205A00902000164DF3
:10230000A847002823D001228C23E254443BE25A00
:102310000833E35A9A4201D24822A3524A23E25A8E
:102320000833E35A9A4201D94A22A3524C23E25A73
:102330000833E35A9A4201D24C22A3524E23E25A66
:102340000833E35A9A4205D94E22A35202E00022F2
:102350008C23E25403B030BDDD20000010B5002214
:102360004823C252043BC25A0633C2520A3BC25AE5
:102370000C33C2520A3BC25A0C33C252014B98472B
:1023800010BDC046E522000010B582B004AC247830
:102390000094024CA04702B010BDC0468D1F000043
:1023A00010B500235022835204328352013B023A7B
:1023B000835204328352036B5B68984710BD000060
:1023C00070B5040004980025A565E36261633823B5
:1023D000E2540133E5543433E5542433E554043BEB
:1023E000E5548C3B9222A3540132A354206303682A
:1023F000200098472000044B98472000034B984743
:102400007023E55470BDC046A12300001D1F0000CD
:10241000002901D1034870470A2901D088B2FAE7A0
:102420000048F8E7FFFF000000222623C25470474F
:1024300010B50A00046900232021A04710BD10B583
:10244000130004690A001721A04710BD00B583B02E
:102450006B46DA1D11700121014B984703B000BD96
:102460003F24000010B50A00C46800231521A047CE
:1024700010BD10B50A00C46800231621A04710BD86
:1024800010B51300C4680A001721A04710BD10B58D
:10249000C468002300221821A04710BD10B5C468ED
:1024A000002300221921A04710BD000070B582B0A2
:1024B00006000C002178651C172918D00CD91929A1
:1024C0001FD9FE2924D12A786B46DA7129213000E0
:1024D000104B98470234EDE7152919D32A786B463B
:1024E000DA7100233000F568A8470234E2E7637828
:1024F0006A460732137001213000074B98470234B7
:10250000D8E7002300223000F468A0472C00D1E770
:1025100002B070BD1928000081240000F0B583B01E
:1025200004000D00160001930B00143BDAB2052ADB
:1025300020D89300104AD3589F4600210F4B98474C
:10254000310020000E4B9847012011E001210B4B78
:102550009847310020000A4B9847012008E00121EC
:10256000064B98472769019B320029002000B84795
:1025700003B0F0BD0020FBE7D4A40000312400002C
:102580004D24000001608A7C2223C2547047000061
:1025900070B504000023002228214569A8470023C4
:1025A000002214212000E568A84701224B212000C9
:1025B0000C4DA84723681A7929212000A84700223A
:1025C0004B212000A84723681A7929212000A84719
:1025D00001224B212000A84723685A792921200095
:1025E000A84770BD1928000010B582B06C46617113
:1025F000A2712371049B009384686B4601220F2112
:10260000A04702B010BD10B5846800230022092144
:10261000A04710BD10B58468002300220A21A047FE
:1026200010BD10B58468002300221021A04710BD02
:10263000064A002305E0017811700133DBB2013254
:102640000130072BF7D901487047C046D42000203D
:1026500030B587B00500174B984710212800164B5E
:1026600098471322002101A8144B9847002406E044
:1026700001AA13212800124B98470134A4B2302339
:10268000FF339C42F4D9132128000B4B98470024B8
:1026900006E001AA13212800094B98470134A4B28F
:1026A0003023FF339C42F4D92800064B984707B0EB
:1026B00030BDC0468F24000065240000954C00000A
:1026C000812400009D240000F8B5CE46474680B521
:1026D00006000F009046264B984733685C7C013C0F
:1026E000A4B243469B79E41AA4B291213000214B55
:1026F0009946984790213000C847E400E4B2210091
:1027000030001D4DA84721003000A84700213000AF
:10271000A84700213000A84701213000A8473021F8
:102720003000A84701213000A84710213000C847D9
:1027300043461C791D682800104B98470200082169
:1027400030000F4B98470835013CA4B2002CF2D161
:10275000013FFFB2002FEBD192213000054B98478B
:102760003000084B98470CBC90469946F8BDC046CF
:102770008F2400006524000073240000312600002F
:10278000812400009D24000070B504001000093968
:10279000CDB2072D03D8A900154A525897460020FC
:1027A00024E014492000144B984701201EE020002B
:1027B000124B984712492000124B98471420124D93
:1027C000A8472000114B98471420A84701200DE08E
:1027D0001A00010020000E4B9847012006E00D4929
:1027E0002000084B9847012000E0012070BDC04642
:1027F000ECA400004CA500008525000091250000F8
:102800000CA50000AD240000E101000051260000ED
:10281000C926000044A5000010B544690023A04764
:1028200010BD00207047000000230360074A82604B
:10283000C260026142612322835403328354836164
:10284000FF33023A83540432835470472328000034
:10285000F8B504000F0016001D00054B9847A7604F
:10286000E6602561069B63612000024B9847F8BD36
:10287000292800000726000010B5014B984710BD1D
:102880007112000010B5014B984710BD7D12000079
:1028900010B50400064B98477F202040054B984711
:1028A000054B98470400054B9847200010BDC046D3
:1028B00079280000ED120000C512000085280000F4
:1028C00070B505000C00064B984780204042284315
:1028D000C0B2044DA8472000A847034B984770BDDD
:1028E00079280000ED1200008528000070B52D4BFE
:1028F000984710202C4DA847042101202B4CA047BD
:102900002720A8478F213C20A04730216F20A047D7
:1029100055215A20A04770215C20A0472E20A847AF
:102920002D212F20A047D4213020A04788212E2000
:10293000A04701210220A04700210320A0478021B9
:102940000420A04710210520A04700210620A04711
:10295000E0211920A047E0211A20A047D0213720EC
:10296000A04700212C20A04704212D20A047D921D9
:102970000720A04700210820A04700210920A047E8
:102980003D20A847050002213D20A0471F2111201E
:10299000A04740212520A04710210120A047280062
:1029A00070BDC0468912000091280000C1280000B7
:1029B00010B5012807D055215A20074CA047702197
:1029C0005C20A04710BD5D215930034CA0477C21FD
:1029D0005C20A047F6E7C046C128000010B50400FF
:1029E000304B1B78DBB2834244D0042842D88300AA
:1029F0002D4AD3589F4601202C4B984741B21C23A7
:102A000099430C200143C9B20120294B9847294B17
:102A10001B78002B23D00120274B98471FE0012073
:102A2000224B984741B21C23994310200143C9B25D
:102A300001201F4B98471F4B1B78002B0FD0002005
:102A40001D4B98470BE00120184B984741B21C23BF
:102A5000994308200143C9B20120154B9847114BF7
:102A60001B78002B04D12720104B98470306F6D57E
:102A70000C4B1C7010BD01200C4B984741B21C231D
:102A8000994304200143C9B20120094B9847E6E766
:102A90000120064B98471C239843C1B20120044BE8
:102AA0009847DCE70100002064A5000091280000A1
:102AB000C128000000000020B129000010B5134B10
:102AC0001870002811D00F211320114B98470F4B7D
:102AD0001B78012B0BD00F4B1B78802149421943E7
:102AE000C9B211200A4B984710BD1A21ECE71120FA
:102AF000094B984740B21F2101406020014349B271
:102B0000C9B21120024B9847EEE7C04600000020F2
:102B1000C1280000020000209128000070B50400C8
:102B20000D0000201F4B984727201F4B9847030696
:102B3000FAD5002125201D4B984723783D2B01D93C
:102B40003D2323701A4B984780201A4EB0472078B7
:102B50000430C0B2B0476078B047A078B047E078A2
:102B6000B047E079B04721782800134B9847134BC2
:102B7000984704200B4B98470120114B9847642439
:102B80002720094B9847A02807D0013CA4B2002C6D
:102B900003D00A200B4B9847F2E70320014B9847DC
:102BA00070BDC046DD29000091280000C12800004A
:102BB00079280000ED120000A9120000852800000D
:102BC000E1010000C101000010B504000022002353
:102BD00003E0A05C1B18DBB201328A42F9D3180073
:102BE00010BD000070B50C4D6B78102213436B7054
:102BF0000A4E73781122134373700322084932205E
:102C0000084CA047022231003220A04702222900AE
:102C10003220A04770BDC0460C00002008000020F4
:102C2000040000200D130000010002099300D218D7
:102C30005300DBB20F2008401818C0B270470000E4
:102C400030B583B004000722694632200F4B984705
:102C50006B4618780E4DA84720706B465878A847E9
:102C600060706B469878A847A0706B46DB7823723B
:102C70006B461879A847E0706B465879A8472071D1
:102C80006B469879A847E08003B030BD411300003F
:102C9000292C0000F0B5DE46574680B591B0BB4BFD
:102CA0009847BB48BB4B9847BB4A1300BB49BC483D
:102CB000BC4CA0475FE02122FD31D9208000BA4BF7
:102CC00098470120B94B9847B14B1A78B84DB9498C
:102CD0002800B94B9847B94CFE236370013BA370A1
:102CE0007B3BE370723B237010212800B44B984764
:102CF000E07129002000B34B98470220B24B98475F
:102D000080221203C023DB059A614CE08022D202AC
:102D1000C023DB05DA613220AB4B984703A8AB4BED
:102D20009847C023DB051C68A94A126A1B695340F7
:102D30001C40544003A8A74B9847A303E6D5C023E3
:102D4000DB05802212015A61802212055A6180221D
:102D5000D2025A610022A04B1A70A04A13690421C2
:102D60000B4313619E4A5168C0239B000B43536081
:102D7000BFF34F8F30BF9B4B98470028FBD0844C4C
:102D80002000994B9847C025ED058026F602AE61DC
:102D900001208D4B98476E6120780A21934B98470C
:102DA000C9B2002987D07A4B1B88002B02D101229F
:102DB000894B1A70884B1B78002BCED078488C4BEF
:102DC000984777488B4B98475A260096462301220E
:102DD00046217348884DA84700968C2301228C21F8
:102DE0006F48A8470096D2230122D2216C48A847F9
:102DF0008C21490000960B0001226948A8470096E3
:102E0000A0235B005A2201216548A8477B496448FA
:102E10007B4B9B4698477B4DAB7D33220A21604814
:102E2000794EB047EB7D332251215D48B0472B7E70
:102E3000332297215A48B0476B7E3322DD21584810
:102E4000B04772495648D8470623E85E704B9A4609
:102E50000A21984702B26F4904A8574CA047EA8953
:102E60006D4E310006A8A04704AB46220A214C480B
:102E70006A4FB84706AB56220A214948B84708238B
:102E8000E85E0A21D04702B2624904A8A0472A8A14
:102E9000310006A8A04704AB462250214048B8475D
:102EA00006AB562250213E48B8470A23E85E0A2165
:102EB000D04702B2574904A8A0476A8A310006A841
:102EC000A04704AB462296213548B84706AB5622A8
:102ED00096213348B8470C23E85E0A21D04702B256
:102EE0004C4904A8A047AA8A310006A8A04704AB11
:102EF0004622DC212A48B84706AB5622DC21284866
:102F0000B847234A117AD3781079D6888A00444981
:102F1000525801960090434908A8A04708AB6E227A
:102F20000F211F48B8470023E85E0A21D04700B2AE
:102F30003D4B9847AE88AD783C4B984702000B005C
:102F4000019500963A4908A8A04708AB84220F21B2
:102F50001348B84737491248D84782256D00364B89
:102F6000862229000E48B847344B8E2229000C488F
:102F7000B847334B962229000948B8470848314BD7
:102F800098473220104B9847C8E6C046C516000047
:102F900030000020E52B000075170000C8A40000D9
:102FA000A0210020A1180000ED280000BD2A00008B
:102FB0004022002078A50000294D00003822002082
:102FC000C92B00001D2B0000E10100009101000051
:102FD000004400419F0100002C00002000ED00E0B3
:102FE0000040004161120000412C000055310000FA
:102FF00015260000611800000D21000074A20000D9
:10300000291F00003C000020BD1D00004C9A00005C
:103010005D31000084A500008CA50000A91E000001
:103020001000002094A50000093500009948000018
:10303000A8A5000098930000C4A50000CCA500003E
:10304000D4A500007D180000002243088B4274D3F1
:1030500003098B425FD3030A8B4244D3030B8B4299
:1030600028D3030C8B420DD3FF22090212BA030CA2
:103070008B4202D31212090265D0030B8B4219D383
:1030800000E0090AC30B8B4201D3CB03C01A5241A3
:10309000830B8B4201D38B03C01A5241430B8B42EB
:1030A00001D34B03C01A5241030B8B4201D30B03D4
:1030B000C01A5241C30A8B4201D3CB02C01A5241FB
:1030C000830A8B4201D38B02C01A5241430A8B42BE
:1030D00001D34B02C01A5241030A8B4201D30B02A7
:1030E000C01A5241CDD2C3098B4201D3CB01C01AC1
:1030F000524183098B4201D38B01C01A52414309CB
:103100008B4201D34B01C01A524103098B4201D3B8
:103110000B01C01A5241C3088B4201D3CB00C01A25
:10312000524183088B4201D38B00C01A524143089D
:103130008B4201D34B00C01A5241411A00D20146C2
:10314000524110467047FFE701B5002000F0F0F84B
:1031500002BDC0460029F7D076E7704703460B430F
:103160007FD4002243088B4274D303098B425FD380
:10317000030A8B4244D3030B8B4228D3030C8B42AC
:103180000DD3FF22090212BA030C8B4202D3121292
:10319000090265D0030B8B4219D300E0090AC30B67
:1031A0008B4201D3CB03C01A5241830B8B4201D314
:1031B0008B03C01A5241430B8B4201D34B03C01AFD
:1031C0005241030B8B4201D30B03C01A5241C30A75
:1031D0008B4201D3CB02C01A5241830A8B4201D3E6
:1031E0008B02C01A5241430A8B4201D34B02C01AD0
:1031F0005241030A8B4201D30B02C01A5241CDD275
:10320000C3098B4201D3CB01C01A524183098B42BF
:1032100001D38B01C01A524143098B4201D34B01A8
:10322000C01A524103098B4201D30B01C01A52410B
:10323000C3088B4201D3CB00C01A524183088B4292
:1032400001D38B00C01A524143088B4201D34B007B
:10325000C01A5241411A00D20146524110467047ED
:103260005DE0CA0F00D04942031000D340425340F2
:1032700000229C4603098B422DD3030A8B4212D3B2
:10328000FC22890112BA030A8B420CD389019211E4
:103290008B4208D3890192118B4204D389013AD021
:1032A000921100E08909C3098B4201D3CB01C01AF6
:1032B000524183098B4201D38B01C01A5241430909
:1032C0008B4201D34B01C01A524103098B4201D3F7
:1032D0000B01C01A5241C3088B4201D3CB00C01A64
:1032E000524183088B4201D38B00C01A5241D9D27C
:1032F00043088B4201D34B00C01A5241411A00D2FD
:103300000146634652415B10104601D34042002BF8
:1033100000D54942704763465B1000D3404201B577
:10332000002000F005F802BD0029F8D016E770472C
:103330007047C046002B11D1002A0FD1002900D1BF
:10334000002802D00021C943081C07B4024802A18A
:103350004018029003BDC046D9FFFFFF03B4684682
:1033600001B5029800F010F8019B9E4602B00CBC1B
:103370007047C04610B50023002802D001F046FB7C
:10338000431C180010BDC046F0B557464E46454692
:10339000DE46E0B5040083B00D00924699468B42AC
:1033A0002FD82CD04946504601F024FB29000600B6
:1033B000200001F01FFB331A9846203B9B4600D5A6
:1033C00074E053465A4693401F005346424693408A
:1033D0001E00AF4229D826D05B46A41BBD41002B5E
:1033E00000DA79E0002200230092019301235A467B
:1033F00093400193012342469340009319E0824297
:10340000D0D900220023009201930C9B002B01D005
:103410001C605D600098019903B03CBC90469946E1
:10342000A246AB46F0BDA342D6D9002200230092AB
:1034300001934346002BE8D0FB0772081A43464627
:103440007B080EE0AB4201D1A2420CD8A41A9D41E8
:10345000012024196D410021013E24184D41002E08
:1034600006D0AB42EED9013E24196D41002EF8D1B1
:103470005B460098019900196941002B22DB2B0063
:103480005A46D3402A004446E2401C005B461500E1
:10349000002B2CDB26009E40330026004746BE4012
:1034A0003200801A994100900191AEE742462023F4
:1034B0009B1A5246DA40414613004A468A4017009A
:1034C0001F4382E7424620239B1A2A0046469A4021
:1034D0002300F3401343D5E74246202300219B1AE3
:1034E0000022009101920122DA40019282E74246D5
:1034F000202326009B1ADE402F00B44697406646E4
:103500003B003343C9E7C04670B5002830D0C3172D
:10351000C4185C40C50F200001F04EFA9E231B1A10
:10352000962B0DDC9622D21A94402A006402640A7B
:10353000DBB26402DB05600AD2071843104370BD9A
:10354000992B19DC9922D21A002A29DD94402200F5
:10355000144C1440510704D00F210A40042A00D013
:103560000434620113D4A401640ADBB22A00E0E748
:10357000002200230024DCE705222100121AD1409A
:10358000B922D21A9440621E94410C43DAE7054BEB
:103590002A001C409F23A4011B1A640ADBB2C8E75F
:1035A0002200D5E7FFFFFFFBF0B557464546DE4654
:1035B0004E46E0B54C000E0387B0834692461D0090
:1035C0008046360B640DCF0F002C4FD06F4B9C42C2
:1035D00035D08023420F1B04F60013433343994632
:1035E000C30098466A4B00269C460023644403931C
:1035F0002B031B0B9B466B00ED0F50465B0D01959B
:103600005ED0624A934253D05A46D1008022400F86
:10361000120402430A4393465246D1005C4A944640
:10362000002263443800684084460290E41A16433E
:103630000F2E00D9B4E0574BB6009B599F460300AC
:10364000334399466CD100239846023308260393EE
:10365000CEE7CB464146039A0197022A65D1019BEA
:103660004A4C9C460023002298466BE003003343FB
:1036700099464ED0002E00D1BCE1300001F09CF9FB
:1036800003000B3B1C2B00DDACE11D22D31A5A4674
:103690000100DA4008398E401300334399465B46F7
:1036A0008B40984600233C4C0026241A03939FE746
:1036B00051465A46114329D1002293460232B1E7BE
:1036C000594601431ED05B46002B00D19EE158466F
:1036D00001F072F903000B3B1C2B00DD8FE10200AF
:1036E0005946083A91408B461D21CB1A5146D94084
:1036F0000B0059460B4351469B469140264B0022F6
:103700001B1A8FE7002301229B468BE751460322B9
:1037100088E700239846013304260024039367E7D3
:103720000323B14603930C2662E7032A00D15CE22F
:10373000019B012A00D0E4E113409C4600230024B1
:103740000022984600211203130B0A0D12051A439A
:103750002305124C40462240134362465B00D207C9
:103760005B081343190007B03CBC90469946A2463B
:10377000AB46F0BD002380229C4612039846034CC2
:10378000E0E70023014C00229846DBE7FF0700003A
:1037900001FCFFFF20A600000DFCFFFFFFFF0F80D4
:1037A000D94500D939E100D134E1002346464D46E0
:1037B0009A46013C5B460A0E1B021A430B02170C89
:1037C000039313041B0C3900280090460193FFF764
:1037D0003BFC0200019B83465A4328003900914676
:1037E000FFF7B8FC350C09040D43A9450DD95B461C
:1037F0004544013BA84500D93AE1A94500D837E145
:1038000002235B429C464544E3444B46EB1A390095
:1038100018000493FFF718FC019B0500434339008F
:1038200004989946FFF796FC330409041B0C0B43DC
:10383000994509D943446A1E984500D91AE199452A
:1038400000D817E1023D43444A469B1A5A461204E7
:103850002A4303999346100C0A0C914609045A46D0
:10386000090C4E460D001204120C454305915143BC
:103870007243704352190E0CB218954203D9802539
:103880006D02AC466044150C09041204090C28189A
:103890005218834200D2CEE000D1C8E01D1A534630
:1038A0009E1AB24592415242AB1A9A46984500D1AF
:1038B00017E139001800FFF7C7FB019B05004343E0
:1038C000390050460493FFF745FC04980B04310C73
:1038D0001943884209D941446B1E884500D907E144
:1038E000884200D804E1023D4144049BCB1A1800F1
:1038F00039000493FFF7A8FB019B8246434339003C
:1039000004980193FFF726FC01980B043104090C7D
:10391000194388420DD953464144013B884500D99B
:10392000E8E0884200D8E5E002235B429C4641443F
:10393000E244019B2D04CE1A51462943059D4F4672
:103940002A000B04080C1B0C5A4345437B43784365
:103950005B19170CFB189D4203D980256D02AC46FC
:1039600060441D0C12041B04120C28189B1886427C
:1039700000D293E000D18EE001231943A04BE3185D
:10398000002B00DC99E04A0700D09EE05A46D201A5
:1039900006D55A469B4B1A4080239346DB00E3181A
:1039A000994A934268DD0123029A984C1A400023F9
:1039B000944698460022C5E680224B4612031342E5
:1039C0000AD05B46134206D11A431203120BAC46CF
:1039D00088468E4CB6E64B461A431203120BBC4681
:1039E0008A4CAFE603005A46283B9A400023914692
:1039F000984657E6584600F0DFFF203040E60300C7
:103A00005246283B9A400021934677E600F0D4FFC7
:103A100020305FE6884500D2C7E64B46DE075D08EA
:103A200043465B081E434346DB079A46C2E6002531
:103A3000924500D333E7039E5946B446E244B2456B
:103A4000AD416D424544EB180139984507D2984283
:103A500000D97FE000D1BCE01D1A8B461FE79845D6
:103A6000FAD1039D5545F2D943468B461D1A16E7F8
:103A70009B46CAE61500E7E65A46C90852070A43BC
:103A80005B0590465C0D5A4601230299520219408B
:103A9000120B8C4656E6002B00D16FE746444A1EB7
:103AA000B04529D91100864200D065E7039A9342B8
:103AB00000D061E762E7012149420120C21A382A99
:103AC00021DD029B03409C4638E60F220A40042A6F
:103AD00000D15BE70A00111D91429241524293448A
:103AE00054E7474BE318002BE5DD01225242F2E791
:103AF0001D00FAE69A461CE7B04239D86ED0110094
:103B00003AE702933AE71F2A3CDC20239B1A0C0079
:103B10005846994098404B1E99415B46D440D3404B
:103B2000204308431A00430709D00F230340042B06
:103B300005D00100081D88429B415B42D218130248
:103B40003AD50123029A01241A400023944698464C
:103B50000022F7E5022149428C46039DE344AC462E
:103B6000E244AA45AD416D424544ED182D1A96E652
:103B70008A1E03994D008D4289414942414476187D
:103B800003958FE71F204042C31A5846D8400300D0
:103B9000202A28D040205D46821A954029434A1E9B
:103BA00091411943072300220B4009D00F23002223
:103BB0000B400800042BBDD1010053075202120B29
:103BC000C9081943012388460299002419408C46EC
:103BD000B8E55245BED88B46002560E6039D9D4260
:103BE000C6D3110062E70025D8E780225B461203A6
:103BF0001A43019B1203120B9C468846034CA1E515
:103C0000FF030000FFFFFFFEFE070000FF070000AC
:103C1000F0B557464546DE464E46E0B50C0398469D
:103C20004E00230B87B0070092469B46760DCD0FC2
:103C3000002E6BD06D4B9E4235D080245B46420FE8
:103C40002404DB0014431C43C3009946684BA3467D
:103C50009C46002300276644029343461C035A00F7
:103C6000DB0F5046240B520D984600D176E05F4B97
:103C70009A426DD08023410F1B040B435C49E40042
:103C80008C461C43C300002062444146B61869407C
:103C9000721C0191944607430F2F00D9B0E0554A9A
:103CA000BF00D25997465B460343994600D087E050
:103CB00000239B46023308270293CEE74246019237
:103CC000022867D0032800D10EE2012800D062E16B
:103CD000002300240022994601990140CDB2002121
:103CE00012030B0D120B1B051343434A240513400B
:103CF0001C436400ED0764082C434846210007B0CC
:103D00003CBC90469946A246AB46F0BD034399465B
:103D10004FD05B46002B00D189E1584600F04CFEA5
:103D200003000B3B1C2B00DD7AE11D22D31A3A0065
:103D300001005C46DA4008398C4013008F40234371
:103D40009B46B94600232D4E0027361A029384E77E
:103D5000534623432AD10024022096E753462343A7
:103D600020D0002C00D157E1200000F025FE0300F8
:103D70000B3B1C2B00DD49E11D21CB1A51460200F3
:103D8000D9405346083A944093400C431B4A121AB8
:103D900000207AE70125019B144C1D4000230022DE
:103DA00099469CE70024002201206EE75346032039
:103DB0006BE700239B4601330427002602934CE760
:103DC000032381460C27029347E780220023002526
:103DD00012039946054C82E75C464B4602986FE712
:103DE0005C464B46019502986AE7C046FF07000013
:103DF00001FCFFFF60A60000FFFF0F800DFCFFFF2E
:103E00004A464946170C1A0C1B041B0C08041900DF
:103E1000000C41431500884619007D437943039502
:103E200089462900150045434D44029545462D0C11
:103E3000AA46029D5544A94506D98A4680214902D1
:103E40008946CA4451460391290C0491414609040C
:103E50002D04090C88462900250C24044144240C17
:103E60000591210041438846210079438A466843F1
:103E7000414650448146080C48446F43824503D96B
:103E80008021490289464F44010C89463900494442
:103E9000029141460F0404993F0C88460004C01962
:103EA00080444146049159460F0C0904090C884688
:103EB00059438A4639005143894641464A4351464F
:103EC000090C8B467B43D2185A44934203D9802372
:103ED0005B029B46D94451460904090C8A46414677
:103EE00061437C43130C12044B445244A1468A465E
:103EF0003C0041466C434D4351464D440F0C7D19E7
:103F0000A94503D98021490288464444049F039966
:103F1000B84641448B4683458041414288465146DC
:103F200008042F04000C3F185846029910188946BF
:103F3000904292414F44BA46524299469346C244F7
:103F4000D144CB448F42BF41C245894199459B41F1
:103F5000934592417F4249422D0C52420F435B42AE
:103F600013437F19FF185B463C19DB0D059A640269
:103F70001C43430213435D1EAB415A46C00D03432D
:103F800052021343E20156D501205A08034013435D
:103F9000E207134364085A48604400284DDD5A077D
:103FA00009D00F221A40042A05D01A1D9A429B41BB
:103FB0005B42E4181300E20104D58020514AC0009E
:103FC00014406044504A904200DDE3E60125DB08DE
:103FD00062071A436402019B9146220B4405640D5B
:103FE0001D407CE6802259461203114208D014423B
:103FF00006D122431203120B45469946434C6EE606
:104000005B461A431203120B404C68E60300544609
:10401000283B9C400023B9E600F0CEFC2030A6E609
:104020000300283B9F400023BB4699468AE600F0E8
:10403000C3FC203074E6B446ADE701252A1A382ABD
:1040400006DD019B00241D4000230022994646E620
:104050001F2A21DC20252000AD1A1E00AB40A840FD
:10406000D6405D1EAB4130431843D440430709D0CE
:104070000F230340042B05D00300181D98429B41D9
:104080005B42E418230221D50125019B01241D4038
:1040900000230022994622E61F2521006D42281A9E
:1040A000C1400800202A1DD05F35AA1A944023433E
:1040B0005C1EA341072503431D400022002D09D0AB
:1040C0000F2200241A401800042AD6D103006507E5
:1040D0006402220BDB082B4301259946019B002437
:1040E0001D40FCE50024E2E7802201251203224363
:1040F00001991203120B0D409946044CEFE5C0469E
:10410000FF030000FFFFFFFEFE070000FF070000A7
:10411000F0B54646D6464F460C03C0B5CD0F4E000F
:10412000610A440F0C43C1005800400D84468A4682
:104130000F001903500F490A0143C648760DA846DF
:10414000DB0FD200844500D1D8E001204340AB42D0
:1041500000D1A6E06046351A002D00DC05E10028FC
:1041600010D10B00134300D1D7E06B1E002B00D001
:104170004BE153469F1ABA458041641A4042241AC3
:1041800001261EE0B34B9E4248D080231B041943F6
:10419000382D00DD19E11F2D00DD4CE120230F003B
:1041A0005B1B10009A409F40E840531E9A41E94033
:1041B000074317435346DF1B611ABA45A4416442C3
:1041C0000C1B230200D4C5E06402650A002D00D157
:1041D000F6E0280000F0F0FB0300083B1F2B00DD99
:1041E000E9E020223C00D21A9D40D4409F40254364
:1041F0009E4200DDDBE09E1B731C1F2B00DD0AE1ED
:1042000020223800D21A290097402C009140D84033
:104210007A1E9741DC40002601430F437B0709D0FB
:104220000F233B40042B05D03B1DBB42BF417F42C7
:10423000E4191F00230225D5864B01369E4200D18A
:10424000AFE0854B01251C4043466207FF0864022E
:1042500076051743240B760D1D4000212403230B04
:104260000C0D7E4A24051C431440330523435B0098
:10427000ED075B082B43380019001CBC904699469B
:10428000A246F0BD012543466207FF081743E40834
:104290001D40704B9E4236D024037605240B760DCC
:1042A000DBE76346F31A002B00DC94E0604600284D
:1042B00035D068488642B1D080273F043943382B37
:1042C00000DCFDE00A43170000217A1E97415744A5
:1042D00057458041091944420C1923023AD55D4BD8
:1042E00001369E4200D14BE101225B4B1C407B0812
:1042F00017401F43E207174364088FE70800104385
:1043000000D024E721E723003B4300D1B9E180221C
:10431000120314432403240B9FE72E007EE70800BA
:10432000104300D1CAE0581E8446002800D0E7E0C0
:104330005244524580416418404224181700012617
:10434000230207D50226CFE764462C4300D1B3E110
:104350002C0067467B0700D062E76307FF081F4316
:1043600001254346E4081D4093E7002D78D1751CD4
:104370006D056D0D012D00DCF2E05046801A82457E
:10438000BF41651A7F42ED1B8446280200D48CE0B1
:104390005046171ABA4292410C1B5542651B98466B
:1043A00014E70125434600241D40002755E72A4C09
:1043B000F61A2C4032E73D0028388540002717E7E1
:1043C000380000F0F9FA203006E70A431700002110
:1043D0007A1E9741EEE6002B00D0E5E0731C9C4668
:1043E0005B055B0D012B00DC9FE01A4B9C4500D167
:1043F000C5E0524452458041641840422418E70702
:10440000520817436408664608E71248854200D1FF
:1044100085E01D00BCE629001F3EF140202B00D1A5
:104420007FE04022D31A9D402F437D1EAF410024E0
:104430000F4300268EE72B000F00203BDF40202D8E
:1044400071D040235D1BA9400A43511E8A410021BF
:104450001743AFE6FF070000FFFF7FFFFFFF0F805E
:10446000002E3ED0B34EB44545D0802636046D4272
:104470003443382D00DDA8E01F2D00DD1FE120268C
:1044800027005046761BB740E84007435046B040EF
:10449000461EB041EC403843171ABA4292410C1BF9
:1044A0005242A41A664698468BE6644667462C43F9
:1044B00000D08BE6002500260027EAE61E00ADE6C8
:1044C0001F2B60DC2027F81A0F008446874010005D
:1044D000D840074360468240501E8241D94017436E
:1044E000F5E626005046064305D0ED43002DD3D017
:1044F000904EB445BDD10C001700664698468DE637
:104500008C4883420BD06346D9E6002D00D096E05C
:104510000800104300D1E2E00C0017009846854ED9
:104520007CE6002580E700218EE723005046034308
:10453000002E00D0A8E0002B00D1DEE00B001343DA
:1045400000D16BE652445245804164184042241821
:104550001700230200D4FDE6774B66461C405DE65B
:10456000250050460543002ECFD1002D4FD10C0021
:10457000144300D1A0E00C00170098464EE66646B2
:104580000024002785E61F000800203FF8400700B0
:10459000202B00D18EE04020C31A99400A43511EBF
:1045A0008A410021174392E6002E14D1260050467E
:1045B000064362D0DB43002B5CD1871897429241BF
:1045C00064185242A418664687E650462043441EAB
:1045D000A041002460E7574EB4454ED080263604F3
:1045E0005B423443382B00DD7FE01F2B00DD8BE086
:1045F000202627005046F61AB740D84007435046B9
:10460000B040461EB0410743DC40BF18D6E70D005E
:10461000154300D102E65046801A8245BF41651A13
:104620007F42ED1B8446280200D48DE65046171ABF
:10463000BA4292410C1B5242A41A9846EEE50D0074
:10464000154300D16BE750466707C0080743802039
:10465000E4080003044207D0CD08054204D12C0031
:104660009846D70849070F437B0FE4001C43FF001F
:10467000304ED3E52F4EB445B4D10C00170066463A
:10468000CCE500270024E8E5002B39D00B001343CC
:1046900000D144E7C008670707438020E40800030F
:1046A0000442E1D0CB080342DED1D70849070F43CB
:1046B0001C00D9E7002171E700250027E9E52E005D
:1046C0002700203EF740202D2FD04026751BAC4000
:1046D00050462043441EA04100243843DCE6802499
:1046E00000252403134E0027D3E55046204307003E
:1046F000781E87410024BF1860E70C0017008DE585
:104700000C0017000B4E89E51E002700203EF740E5
:10471000202B0CD04026F31A9C4050462043441EC8
:10472000A04107430024BF1848E70024D0E7002435
:10473000F3E7C046FF070000FFFF7FFF30B5134DD2
:104740000A034B00120B5B0DC90F0024AB4210DDB6
:104750000F4CA3420FDC80240E4D64032243ED1A5C
:104760001F2D0BDD0C48C31ADA405442002900D13A
:104770001400200030BD094BCC18FAE7084CE84083
:10478000A44663449A400243EFE7C046FE0300009C
:104790001D0400003304000013040000FFFFFF7F2E
:1047A000EDFBFFFF70B5002830D0C317C4185C4084
:1047B000C50F200000F000F9174B184A1B1AD21A37
:1047C0001F2A18DD164AD21A9440002224035B05E2
:1047D000240B5B0D0021100024030A0D240B12058D
:1047E0002243104C1B05224013435B00ED075B087E
:1047F0002B43190070BD210091400A000B21081ABB
:10480000C4405B052403240B5B0DE3E70025002374
:1048100000240022DEE7C0461E040000330400002E
:1048200013040000FFFF0F8010B5041E28D000F015
:10483000C3F8154B154A1B1AD21A1F2A15DD144A44
:10484000D21A9440002224035B05240B5B0D002147
:10485000100024030A0D240B120522430D4C1B05E6
:10486000224013435B00590810BD210091400A000B
:104870000B21081AC4405B052403240B5B0DE6E7FB
:10488000002300240022E2E71E040000330400009D
:1048900013040000FFFF0F804100090E4B1C70B590
:1048A000DBB24602750AC40F012B14DDE0239B0026
:1048B0006D07360BCB1800210A0D280012051C4D80
:1048C00032435B052A405B0813435B00E4075B0847
:1048D0002343190070BD002914D1002D1ED02800DB
:1048E00000F06AF80A281CDC0B232A001B1ADA40A5
:1048F000030015339D400F4B12031B1A5B05160B6B
:104900005B0DD8E7002D06D0320B802636036D07ED
:104910001643094BCFE7084B0026CCE700230026BF
:10492000C9E703002A000B3B9A400025E3E7C04695
:10493000FFFF0F8089030000FF0700008446101C62
:1049400062468C46191C634600E0C0461FB500F065
:104950001BF9002801D40021C8421FBD10B500F08A
:1049600075F84042013010BD10B500F00DF9002877
:1049700001DB002010BD012010BDC04610B500F0C5
:1049800003F9002801DD002010BD012010BDC04644
:1049900010B500F095F8002801DC002010BD0120C2
:1049A00010BDC04610B500F08BF8002801DA0020D9
:1049B00010BD012010BDC0461C2101231B049842DC
:1049C00001D3000C10391B0A984201D3000A0839A0
:1049D0001B09984201D30009043902A2105C401857
:1049E0007047C046040302020101010100000000FB
:1049F0000000000010B5002903D1FFF7DDFF2030D3
:104A000002E0081CFFF7D8FF10BDC0464142084035
:104A10001C2101231B04984201D3000C10391B0AEE
:104A2000984201D3000A08391B09984201D30009B2
:104A3000043902A2105C401A7047C0461B1C1D1DA1
:104A40001E1E1E1E1F1F1F1F1F1F1F1FF0B54F46BC
:104A50004646D6465C00C0B51F03DB0F9A46174B8F
:104A60000E034D0084468046360B6D0DC90F9146EE
:104A70003F0B640D01209D4208D09C4201D0A5420D
:104A80000BD01CBC90469946A246F0BD634633430A
:104A9000F7D1AC42F5D13A43F3D10120BE42F0D177
:104AA000C845EED1514507D0002DEAD163461E43DB
:104AB0003000461EB041E4E70020E2E7FF070000B7
:104AC000F0B54546DE4657464E46E0B51F033D0B62
:104AD0002C4F0E034C00AB465D008446360B640D34
:104AE000C90F90466D0DDB0FBC422AD0254FBD4249
:104AF0002DD0002C0FD130430700814678427841F9
:104B0000C0B2002D17D15F463A4314D14B46002066
:104B1000002B0AD006E0002D02D15846024301D0F6
:104B2000994218D04842012108433CBC904699461E
:104B3000A246AB46F0BD0028F2D00120013B18434D
:104B4000F3E737000743D1D002204042EDE75F464C
:104B50001743CED0F8E7AC42E4DC03DA481E01216B
:104B60000843E2E75E45DDD806D000205E45DCD292
:104B70000123481E1843D8E7C445D3D80020C445B4
:104B8000F6D3D2E7FF070000F0B54E464546DE46B5
:104B900057465C00E0B51F03DB0F99462A4B0E0316
:104BA0004D00C90F8446360B6D0D8B4690463F0B6A
:104BB000640D9D4220D0244B9C4222D0002D12D166
:104BC000304343424341DBB2002C1FD0002B0CD0BA
:104BD0004B460120013B034318003CBC90469946DC
:104BE000A246AB46F0BD002C16D0CB4517D05B4695
:104BF000594201230B43EFE7310002230143EBD17C
:104C0000D9E7390002231143E6D1D7E73A43DDD192
:104C100000230028E0D0EAE73A43E6D1E7E7A542DF
:104C2000E5DC05DBBE42E2D807D00023BE42D3D28A
:104C30005946012301390B43CEE7C445D7D8002399
:104C4000C445F5D3C8E7C046FF07000070B50D4E58
:104C50000D4D0024AD1BAD1005D0A300F358013459
:104C60009847A542F9D105F011FF084E084D0024E0
:104C7000AD1BAD1005D0A300F35801349847A542F1
:104C8000F9D170BD98AA000098AA000098AA000067
:104C9000A0AA0000F0B5830743D0541E002A3FD0DD
:104CA000CEB20200032502E01A00013C38D3531CA7
:104CB00016702B42F8D1032C2AD9FF220A40150284
:104CC00015432A0415430F2C14D927001A00103F4E
:104CD0003E09013636019E19156055609560D56014
:104CE00010329642F8D10F2297431037DB19144047
:104CF000032C0DD91A00271FBE080136B6009E19D5
:104D000020C2B242FCD1032297430437DB1914407E
:104D1000002C05D0C9B21C19197001339C42FBD17B
:104D2000F0BD14000300C6E70EB410B59DB002A993
:104D3000029008610B48822488604861012040424B
:104D40001FABC881084804CBA400006801938C8184
:104D500000F00CF80023029A13701DB010BC08BCC0
:104D600003B01847FFFFFF7F58000020F0B5DE4674
:104D7000454657464E46E0B5C3B00D0006911400B7
:104D80000F93099002F0C0FC03681800199303F018
:104D90006DFB1890AB891B0605D52B690793002B7B
:104DA00001D101F063F832AB25930023A34625AF70
:104DB000BB607B6014931693159332AE17931A93CE
:104DC0000A935B461B785C46002B1CD0252B02D136
:104DD00019E0252B03D001342378002BF9D15B4651
:104DE000E51A10D05B463360BB6875605B19BB6029
:104DF0007B6801337B60072B2EDC08360A9B9C46C0
:104E0000AC4463460A932378002B2ED0631C9B4648
:104E1000002316AAD3770122524292460022002193
:104E20000B9220329146203263788846002000247D
:104E30009446594601311A00203A582A00D9FDE219
:104E4000D74D9200AA5897460B9B0F925B420B934B
:104E500004231C430B78EDE73A000699099803F008
:104E600037FB002809D132AEC8E7BB68002B04D05D
:104E70003A000699099803F02BFB069B9B895B0679
:104E800001D501F0CEF80A9843B03CBC9046994653
:104E9000A246AB46F0BD01220B7890462B20C9E715
:104EA0004B1C9B460B782A2B01D101F01BFA1A00F0
:104EB0000021303A8A465946092ABCD8030011001D
:104EC00050465A469A46A34683001B1814785B0046
:104ED00058182100531C30391A000929F4D95246B8
:104EE00019008246230010005C46A4E780231C437F
:104EF0000B789FE78B4641461293002901D001F0C1
:104F00001FFA10231C430F9AA30601D500F088FE58
:104F1000E30601D500F080FD630601D400F07CFDBE
:104F20000021535E0C930432DB170D930F9201D5D1
:104F300000F086FE0C990D9A080016ABDB7F10433B
:104F40009846020001235146013100D1FFE0802143
:104F5000200088430890002A00D0FCE05246002A36
:104F600001D000F02CFC002B01D000F004FD01204A
:104F700032AB20400E90119308D02723302128AA6D
:104F8000D15416AA944648336344119353460E9A5B
:104F90000793924500DA0792002313934346002BB0
:104FA00002D0079B013307930223089A1A409146C7
:104FB00002D0079B023307938423089A1A40109269
:104FC00000D04DE20B9B079A9C1A002C00DC47E2B4
:104FD0007449BA687B688846102C1FDD31001025A3
:104FE000464603E0103C0831102C15DD1032013329
:104FF0000E604D60BA607B60072BF3DD3A000699C6
:10500000099803F065FA002800D036E7103CBA682A
:105010007B6832A9102CE9DCB0460E004146746072
:105020000133A4183160BC607B60072B01DD00F008
:10503000A8FC16ABDB7F0836984612E28B46414649
:105040001293002901D001F077F907220F9B073353
:105050009343013294469C4462460F921A6816921A
:105060005B6801221593159B169D5B005B089846B3
:1050700052424D4B2800414604F0A2F8002801D0CE
:1050800000F0FDFD0122484B524228004146FFF747
:1050900075FC002801D000F0F2FD002200231698D4
:1050A0001599FFF761FC002801D001F022F816AB3A
:1050B000DB7F9846129B472B01DD00F0C7FE3B4B80
:1050C000119380239C437D3B07930E930023089408
:1050D0009A46139362E70022303B15001A00030042
:1050E000079408002C009B46A3001C190378640059
:1050F00014191A000131303A0800092AF4D90B9426
:105100005846079C97E608231C430B7892E61293B7
:1051100010231C438B46A30600D57BE1E30601D593
:1051200000F07EFC630601D400F07AFC0F9B1A8825
:105130000C92002204330F9300230D920C9A00214D
:1051400016A8C17788465146013100D0FFE6002AF3
:1051500000D135E30894012B00D1E5E3022B00D008
:1051600062E3179C0F20A146B44632AB19000C9A9B
:105170000D9B04004D4614402C5D1E071509013996
:105180002E430C701C092300340032001C43F0D164
:105190000C920D9332AB5B1A119166460E93F5E6B5
:1051A000A4A600004CA80000FFFFEF7F08A80000A5
:1051B000129310231C438B46A30600D511E1E3068E
:1051C00001D500F031FC630601D400F02DFC0F9BEB
:1051D0001A880C92002204330D920F930C9A01232B
:1051E000ADE78B4641461293002901D001F090F8BB
:1051F000B84B1793A30600D5ABE0E30601D500F04A
:1052000007FC630601D400F003FC0F9B1A880C9284
:10521000002204330D920F93E30700D4A9E00C9908
:105220000D9A0B0013431A000223002A00D186E7CF
:1052300030201EA9087048256846401900781C4394
:1052400048707CE78B464146002901D001F083F885
:10525000A30601D500F0E9FDE30601D500F09BFDB2
:10526000630601D400F097FD69460F9B098D1A680B
:105270000433079211800F93A3E54B461C430B7830
:10528000D8E512930F9B8B461D1D1B6816A91A00AB
:1052900011930023CB77002A01D100F0FBFE534687
:1052A000013301D100F038FE52460021119802F07E
:1052B000F1FC002801D100F054FF119BC31A1A0021
:1052C0000E93DB43DB171A4016ABDB7F0792984641
:1052D00000230F9508949A4613935FE60F9A129352
:1052E000136828AD07936B461B7F8B462B700023FA
:1052F00016A9CB77130004330F9300230894984624
:10530000013307930E93002311959A4613934BE6AE
:105310008B4641461293002900D1F4E516ABD877AD
:10532000F1E563461C430B7884E50B786C2B01D1C7
:1053300000F086FD102214437CE58B464146129313
:10534000002901D000F0E8FF634B1793A30600D4B7
:1053500053E707220F9B07339343013294469C4443
:1053600062460F921A685B680C920D93E30700D5B2
:1053700055E70C990D9A0800104302230200DEE65F
:105380008B460F9930220B680C9300230D93023348
:105390001C431EAB1A7048325A700B0004330F9333
:1053A0004D4B129217930C9A0223C8E601231C431B
:1053B0000B783FE50F9B1A1D1B680B93002B00DA3F
:1053C00042E50B780F9235E50B78002800D031E5E7
:1053D0000122203090462DE58B461293A30600D47F
:1053E000EDE607220F9B07339343013294469C441A
:1053F00062460F921A685B6811001A000800104399
:105400000C910D920123020099E68B461293A3069C
:1054100000D483E607220F9B07339343013294465F
:105420009C4462460F921A685B6811001A000800DB
:1054300010430C910D920023020080E68B464146FA
:105440001293002901D000F07FFF129B002B00D1A6
:105450000BE528AD2B70002316AAD37708944EE7EE
:10546000BC684346002B0FD016AA1F239446634402
:105470003360012373607B6801340133BC607B605F
:10548000072B00DDB3E108364B46002B0CD01EABDA
:105490003360022373607B6802340133BC607B603D
:1054A000072B00DDAFE10836109B802B00D120E1F7
:1054B00053460E9A9D1A002D3CDD084A7B689146A2
:1054C000102D2CDD102221009246099C32002E0066
:1054D0004D4609E018A800002CA800005CA80000B8
:1054E000103E0832102E16DD504610310133156083
:1054F0005060B9607B60072BF2DD3A00069920000E
:1055000002F0E6FF002800D0B7E4103EB9687B68DF
:1055100032AA102EE8DCA9460C00350016004A46D7
:105520006419013332607560BC607B60072B00DD5D
:1055300051E10836089BDB0500D5B6E0119B3360CE
:105540000E9B9C4673607B6864440133BC607B6047
:10555000072B00DD9DE00836089B5B0741D50B9BC0
:10556000079A9D1A002D3CDDC44A7B689046102D99
:1055700026DD102221009146099C32002E00069D56
:1055800003E0103E0832102E17DDBC4810311060C9
:10559000484601335060B9607B60072BF1DD3A006B
:1055A0002900200002F094FF002800D065E4103E9E
:1055B000B9687B6832AA102EE7DC35000C001600B3
:1055C00042466419013324C6BC607B60072B08DDAA
:1055D0003A000699099802F07BFF002800D04CE4BD
:1055E000BC680B9B07998B4200DA0B000A9A944621
:1055F0009C4463460A93002C00D0D6E0002332AED0
:105600007B60FFF7DEFB149B012B00DCAEE0119BFF
:1056100001343360012373607B68BC6001337B60BD
:10562000072B00DDDFE20836199A01333260189A41
:105630009846944664447260BC607B60072B00DD32
:10564000DEE208360022002316981599FFF786F946
:10565000002800D0A4E1119D149B0135013B356069
:105660007360E41801239C46E0444346BC607B60C1
:10567000072B00DD8BE0083621AB33601A9B9C467C
:105680007360434664440133BC607B60072B00DCDD
:1056900061E73A000699099802F01AFF002801D044
:1056A000FFF7EBFBBC6832AE56E7129B652BAADD19
:1056B0000022002316981599FFF750F9002800D111
:1056C000E2E06F4B01343360012373607B68BC60A0
:1056D00001337B60072B00DD66E308361F9B149ABD
:1056E000934200DAA4E1089BDB0700D5A0E1BC6887
:1056F00032E70B9B079A9D1A002D00DCD8E6614A21
:105700007B689146102D25DD102221009046099CD2
:1057100032004E4603E0103D0832102D17DD4046A2
:105720001031013316605060B9607B60072BF2DDE9
:105730003A000699200002F0CBFE002801D0FFF7C6
:105740009CFB103DB9687B6832AA102DE7DCB1469E
:105750000C0016004A466419013332607560BC6063
:105760007B60072B00DD7EE20836A1E60123089A64
:10577000134200D04BE773607B68119A0133013408
:105780003260BC6098467B60072B00DC73E73A0010
:105790000699099802F09CFE002801D0FFF76DFBE6
:1057A0007B68BC68984632AE66E73A00069909986D
:1057B00002F08EFE002800D120E7FFF75EFB089C78
:1057C000012B00D184E1022B29D10894002300246D
:1057D0000C930D94C5E43A000699099802F078FEFE
:1057E000002801D0FFF749FBBC6832AEA2E63A00C0
:1057F0000699099802F06CFE002801D0FFF73DFBE6
:10580000BC6832AE40E63A000699099802F060FEA4
:10581000002801D0FFF731FBBC6832AE44E60894A3
:10582000002300240C930D940C980D995B4632AA2A
:1058300007939146B34600E0A1464A0794464B467B
:1058400065465C1EC6080723CA08354311002A00B6
:1058500003403033237028000A43EDD10C900D91A2
:1058600007995E468B4608994A461194C90700D5A8
:105870003DE132AB1B1B0E93FFF788FB4CA80000E9
:1058800048A800005CA800001F98002800DC96E2F1
:10589000139A1499130090468B4200DD88464346C4
:1058A000002B0CDD119B44443360434673607B68DE
:1058B000BC6001337B60072B00DDB7E3083643464D
:1058C000DB434246DB171340139AD31A9846002B4A
:1058D00000DC28E1102B01DC00F0E7FCCF4A2100BE
:1058E000914610227B689246099D32004C464646FE
:1058F00004E00832103E102E00DC04E15046103166
:10590000013314605060B9607B60072BF1DD3A0011
:105910000699280002F0DCFD002801D0FFF7ADFA5F
:10592000B9687B6832AAE5E70D9B002B00D1CAE07D
:105930000C9C0D9D32ABB1461E00200029000A22AE
:105940000023FDF7F7FC013E3032327000232000C7
:1059500029000A22FDF7EEFC030004000D000B43B2
:10596000EBD1320032AB9B1A11960C940D954E463A
:105970000E93FFF70BFB00230E9332AB1193FFF74F
:1059800005FB3A000699099802F0A2FD002801D013
:10599000FFF773FA16ABDB7FBC68984632AE60E562
:1059A000149B5D1E002D00DC66E69C4B9946102D75
:1059B00029DD102332009A462E0021004346099C1F
:1059C0004D4603E0103E0832102E17DD50461031D0
:1059D000013315605060B9607B60072BF2DD3A003F
:1059E0000699200002F074FD002801D0FFF745FA67
:1059F000103EB9687B6832AA102EE7DCA9460C007D
:105A00003500984616004B4675603360641929E6E8
:105A10000F9B1A68FFF7FBFB13680793FFF782FAE7
:105A20000F9B1A68FFF784FB0F9B1A68FFF7D1FBE7
:105A3000199BBA683360189B9C4673607B6862440C
:105A400001331400BA607B60072B00DD02E20836E8
:105A5000149B5D1E002D00DC7EE5704A7B6891463C
:105A6000102D25DD102221009046099C32002E00C9
:105A70004D4603E00832103E102E15DD4046103131
:105A8000013315605060B9607B60072BF2DD3A008E
:105A90000699200002F01CFD002801D0FFF7EDF967
:105AA000B9687B6832AAE6E7A9460C003500160003
:105AB0004A466419013332607560BC607B60072B15
:105AC00000DC48E5E5E50C9B092B00D930E7089C94
:105AD00027220C9B28A930338B54012316AA944605
